{
  "contractName": "StandardBounties",
  "abi": [
    {
      "constant": true,
      "inputs": [],
      "name": "callStarted",
      "outputs": [
        {
          "name": "",
          "type": "bool"
        }
      ],
      "payable": false,
      "stateMutability": "view",
      "type": "function"
    },
    {
      "constant": true,
      "inputs": [],
      "name": "numBounties",
      "outputs": [
        {
          "name": "",
          "type": "uint256"
        }
      ],
      "payable": false,
      "stateMutability": "view",
      "type": "function"
    },
    {
      "constant": true,
      "inputs": [],
      "name": "owner",
      "outputs": [
        {
          "name": "",
          "type": "address"
        }
      ],
      "payable": false,
      "stateMutability": "view",
      "type": "function"
    },
    {
      "constant": true,
      "inputs": [],
      "name": "metaTxRelayer",
      "outputs": [
        {
          "name": "",
          "type": "address"
        }
      ],
      "payable": false,
      "stateMutability": "view",
      "type": "function"
    },
    {
      "constant": true,
      "inputs": [
        {
          "name": "",
          "type": "uint256"
        }
      ],
      "name": "bounties",
      "outputs": [
        {
          "name": "deadline",
          "type": "uint256"
        },
        {
          "name": "token",
          "type": "address"
        },
        {
          "name": "tokenVersion",
          "type": "uint256"
        },
        {
          "name": "balance",
          "type": "uint256"
        },
        {
          "name": "hasPaidOut",
          "type": "bool"
        }
      ],
      "payable": false,
      "stateMutability": "view",
      "type": "function"
    },
    {
      "constant": true,
      "inputs": [
        {
          "name": "",
          "type": "uint256"
        },
        {
          "name": "",
          "type": "uint256"
        }
      ],
      "name": "tokenBalances",
      "outputs": [
        {
          "name": "",
          "type": "bool"
        }
      ],
      "payable": false,
      "stateMutability": "view",
      "type": "function"
    },
    {
      "inputs": [],
      "payable": false,
      "stateMutability": "nonpayable",
      "type": "constructor"
    },
    {
      "anonymous": false,
      "inputs": [
        {
          "indexed": false,
          "name": "_bountyId",
          "type": "uint256"
        },
        {
          "indexed": false,
          "name": "_creator",
          "type": "address"
        },
        {
          "indexed": false,
          "name": "_issuers",
          "type": "address[]"
        },
        {
          "indexed": false,
          "name": "_approvers",
          "type": "address[]"
        },
        {
          "indexed": false,
          "name": "_data",
          "type": "string"
        },
        {
          "indexed": false,
          "name": "_deadline",
          "type": "uint256"
        },
        {
          "indexed": false,
          "name": "_token",
          "type": "address"
        },
        {
          "indexed": false,
          "name": "_tokenVersion",
          "type": "uint256"
        }
      ],
      "name": "BountyIssued",
      "type": "event"
    },
    {
      "anonymous": false,
      "inputs": [
        {
          "indexed": false,
          "name": "_bountyId",
          "type": "uint256"
        },
        {
          "indexed": false,
          "name": "_contributionId",
          "type": "uint256"
        },
        {
          "indexed": false,
          "name": "_contributor",
          "type": "address"
        },
        {
          "indexed": false,
          "name": "_amount",
          "type": "uint256"
        }
      ],
      "name": "ContributionAdded",
      "type": "event"
    },
    {
      "anonymous": false,
      "inputs": [
        {
          "indexed": false,
          "name": "_bountyId",
          "type": "uint256"
        },
        {
          "indexed": false,
          "name": "_contributionId",
          "type": "uint256"
        }
      ],
      "name": "ContributionRefunded",
      "type": "event"
    },
    {
      "anonymous": false,
      "inputs": [
        {
          "indexed": false,
          "name": "_bountyId",
          "type": "uint256"
        },
        {
          "indexed": false,
          "name": "_issuer",
          "type": "address"
        },
        {
          "indexed": false,
          "name": "_contributionIds",
          "type": "uint256[]"
        }
      ],
      "name": "ContributionsRefunded",
      "type": "event"
    },
    {
      "anonymous": false,
      "inputs": [
        {
          "indexed": false,
          "name": "_bountyId",
          "type": "uint256"
        },
        {
          "indexed": false,
          "name": "_issuer",
          "type": "address"
        },
        {
          "indexed": false,
          "name": "_amounts",
          "type": "uint256[]"
        }
      ],
      "name": "BountyDrained",
      "type": "event"
    },
    {
      "anonymous": false,
      "inputs": [
        {
          "indexed": false,
          "name": "_bountyId",
          "type": "uint256"
        },
        {
          "indexed": false,
          "name": "_fulfiller",
          "type": "address"
        },
        {
          "indexed": false,
          "name": "_data",
          "type": "string"
        }
      ],
      "name": "ActionPerformed",
      "type": "event"
    },
    {
      "anonymous": false,
      "inputs": [
        {
          "indexed": false,
          "name": "_bountyId",
          "type": "uint256"
        },
        {
          "indexed": false,
          "name": "_fulfillmentId",
          "type": "uint256"
        },
        {
          "indexed": false,
          "name": "_fulfillers",
          "type": "address[]"
        },
        {
          "indexed": false,
          "name": "_data",
          "type": "string"
        },
        {
          "indexed": false,
          "name": "_submitter",
          "type": "address"
        }
      ],
      "name": "BountyFulfilled",
      "type": "event"
    },
    {
      "anonymous": false,
      "inputs": [
        {
          "indexed": false,
          "name": "_bountyId",
          "type": "uint256"
        },
        {
          "indexed": false,
          "name": "_fulfillmentId",
          "type": "uint256"
        },
        {
          "indexed": false,
          "name": "_fulfillers",
          "type": "address[]"
        },
        {
          "indexed": false,
          "name": "_data",
          "type": "string"
        }
      ],
      "name": "FulfillmentUpdated",
      "type": "event"
    },
    {
      "anonymous": false,
      "inputs": [
        {
          "indexed": false,
          "name": "_bountyId",
          "type": "uint256"
        },
        {
          "indexed": false,
          "name": "_fulfillmentId",
          "type": "uint256"
        },
        {
          "indexed": false,
          "name": "_approver",
          "type": "address"
        },
        {
          "indexed": false,
          "name": "_tokenAmounts",
          "type": "uint256[]"
        }
      ],
      "name": "FulfillmentAccepted",
      "type": "event"
    },
    {
      "anonymous": false,
      "inputs": [
        {
          "indexed": false,
          "name": "_bountyId",
          "type": "uint256"
        },
        {
          "indexed": false,
          "name": "_changer",
          "type": "address"
        },
        {
          "indexed": false,
          "name": "_issuers",
          "type": "address[]"
        },
        {
          "indexed": false,
          "name": "_approvers",
          "type": "address[]"
        },
        {
          "indexed": false,
          "name": "_data",
          "type": "string"
        },
        {
          "indexed": false,
          "name": "_deadline",
          "type": "uint256"
        }
      ],
      "name": "BountyChanged",
      "type": "event"
    },
    {
      "anonymous": false,
      "inputs": [
        {
          "indexed": false,
          "name": "_bountyId",
          "type": "uint256"
        },
        {
          "indexed": false,
          "name": "_changer",
          "type": "address"
        },
        {
          "indexed": false,
          "name": "_issuers",
          "type": "address[]"
        }
      ],
      "name": "BountyIssuersUpdated",
      "type": "event"
    },
    {
      "anonymous": false,
      "inputs": [
        {
          "indexed": false,
          "name": "_bountyId",
          "type": "uint256"
        },
        {
          "indexed": false,
          "name": "_changer",
          "type": "address"
        },
        {
          "indexed": false,
          "name": "_approvers",
          "type": "address[]"
        }
      ],
      "name": "BountyApproversUpdated",
      "type": "event"
    },
    {
      "anonymous": false,
      "inputs": [
        {
          "indexed": false,
          "name": "_bountyId",
          "type": "uint256"
        },
        {
          "indexed": false,
          "name": "_changer",
          "type": "address"
        },
        {
          "indexed": false,
          "name": "_data",
          "type": "string"
        }
      ],
      "name": "BountyDataChanged",
      "type": "event"
    },
    {
      "anonymous": false,
      "inputs": [
        {
          "indexed": false,
          "name": "_bountyId",
          "type": "uint256"
        },
        {
          "indexed": false,
          "name": "_changer",
          "type": "address"
        },
        {
          "indexed": false,
          "name": "_deadline",
          "type": "uint256"
        }
      ],
      "name": "BountyDeadlineChanged",
      "type": "event"
    },
    {
      "constant": false,
      "inputs": [
        {
          "name": "_relayer",
          "type": "address"
        }
      ],
      "name": "setMetaTxRelayer",
      "outputs": [],
      "payable": false,
      "stateMutability": "nonpayable",
      "type": "function"
    },
    {
      "constant": false,
      "inputs": [
        {
          "name": "_sender",
          "type": "address"
        },
        {
          "name": "_issuers",
          "type": "address[]"
        },
        {
          "name": "_approvers",
          "type": "address[]"
        },
        {
          "name": "_data",
          "type": "string"
        },
        {
          "name": "_deadline",
          "type": "uint256"
        },
        {
          "name": "_token",
          "type": "address"
        },
        {
          "name": "_tokenVersion",
          "type": "uint256"
        }
      ],
      "name": "issueBounty",
      "outputs": [
        {
          "name": "",
          "type": "uint256"
        }
      ],
      "payable": false,
      "stateMutability": "nonpayable",
      "type": "function"
    },
    {
      "constant": false,
      "inputs": [
        {
          "name": "_sender",
          "type": "address"
        },
        {
          "name": "_issuers",
          "type": "address[]"
        },
        {
          "name": "_approvers",
          "type": "address[]"
        },
        {
          "name": "_data",
          "type": "string"
        },
        {
          "name": "_deadline",
          "type": "uint256"
        },
        {
          "name": "_token",
          "type": "address"
        },
        {
          "name": "_tokenVersion",
          "type": "uint256"
        },
        {
          "name": "_depositAmount",
          "type": "uint256"
        }
      ],
      "name": "issueAndContribute",
      "outputs": [
        {
          "name": "",
          "type": "uint256"
        }
      ],
      "payable": true,
      "stateMutability": "payable",
      "type": "function"
    },
    {
      "constant": false,
      "inputs": [
        {
          "name": "_sender",
          "type": "address"
        },
        {
          "name": "_bountyId",
          "type": "uint256"
        },
        {
          "name": "_amount",
          "type": "uint256"
        }
      ],
      "name": "contribute",
      "outputs": [],
      "payable": true,
      "stateMutability": "payable",
      "type": "function"
    },
    {
      "constant": false,
      "inputs": [
        {
          "name": "_sender",
          "type": "address"
        },
        {
          "name": "_bountyId",
          "type": "uint256"
        },
        {
          "name": "_contributionId",
          "type": "uint256"
        }
      ],
      "name": "refundContribution",
      "outputs": [],
      "payable": false,
      "stateMutability": "nonpayable",
      "type": "function"
    },
    {
      "constant": false,
      "inputs": [
        {
          "name": "_sender",
          "type": "address"
        },
        {
          "name": "_bountyId",
          "type": "uint256"
        },
        {
          "name": "_contributionIds",
          "type": "uint256[]"
        }
      ],
      "name": "refundMyContributions",
      "outputs": [],
      "payable": false,
      "stateMutability": "nonpayable",
      "type": "function"
    },
    {
      "constant": false,
      "inputs": [
        {
          "name": "_sender",
          "type": "address"
        },
        {
          "name": "_bountyId",
          "type": "uint256"
        },
        {
          "name": "_issuerId",
          "type": "uint256"
        },
        {
          "name": "_contributionIds",
          "type": "uint256[]"
        }
      ],
      "name": "refundContributions",
      "outputs": [],
      "payable": false,
      "stateMutability": "nonpayable",
      "type": "function"
    },
    {
      "constant": false,
      "inputs": [
        {
          "name": "_sender",
          "type": "address"
        },
        {
          "name": "_bountyId",
          "type": "uint256"
        },
        {
          "name": "_issuerId",
          "type": "uint256"
        },
        {
          "name": "_amounts",
          "type": "uint256[]"
        }
      ],
      "name": "drainBounty",
      "outputs": [],
      "payable": false,
      "stateMutability": "nonpayable",
      "type": "function"
    },
    {
      "constant": false,
      "inputs": [
        {
          "name": "_sender",
          "type": "address"
        },
        {
          "name": "_bountyId",
          "type": "uint256"
        },
        {
          "name": "_data",
          "type": "string"
        }
      ],
      "name": "performAction",
      "outputs": [],
      "payable": false,
      "stateMutability": "nonpayable",
      "type": "function"
    },
    {
      "constant": false,
      "inputs": [
        {
          "name": "_sender",
          "type": "address"
        },
        {
          "name": "_bountyId",
          "type": "uint256"
        },
        {
          "name": "_fulfillers",
          "type": "address[]"
        },
        {
          "name": "_data",
          "type": "string"
        }
      ],
      "name": "fulfillBounty",
      "outputs": [],
      "payable": false,
      "stateMutability": "nonpayable",
      "type": "function"
    },
    {
      "constant": false,
      "inputs": [
        {
          "name": "_sender",
          "type": "address"
        },
        {
          "name": "_bountyId",
          "type": "uint256"
        },
        {
          "name": "_fulfillmentId",
          "type": "uint256"
        },
        {
          "name": "_fulfillers",
          "type": "address[]"
        },
        {
          "name": "_data",
          "type": "string"
        }
      ],
      "name": "updateFulfillment",
      "outputs": [],
      "payable": false,
      "stateMutability": "nonpayable",
      "type": "function"
    },
    {
      "constant": false,
      "inputs": [
        {
          "name": "_sender",
          "type": "address"
        },
        {
          "name": "_bountyId",
          "type": "uint256"
        },
        {
          "name": "_fulfillmentId",
          "type": "uint256"
        },
        {
          "name": "_approverId",
          "type": "uint256"
        },
        {
          "name": "_tokenAmounts",
          "type": "uint256[]"
        }
      ],
      "name": "acceptFulfillment",
      "outputs": [],
      "payable": false,
      "stateMutability": "nonpayable",
      "type": "function"
    },
    {
      "constant": false,
      "inputs": [
        {
          "name": "_sender",
          "type": "address"
        },
        {
          "name": "_bountyId",
          "type": "uint256"
        },
        {
          "name": "_fulfillers",
          "type": "address[]"
        },
        {
          "name": "_data",
          "type": "string"
        },
        {
          "name": "_approverId",
          "type": "uint256"
        },
        {
          "name": "_tokenAmounts",
          "type": "uint256[]"
        }
      ],
      "name": "fulfillAndAccept",
      "outputs": [],
      "payable": false,
      "stateMutability": "nonpayable",
      "type": "function"
    },
    {
      "constant": false,
      "inputs": [
        {
          "name": "_sender",
          "type": "address"
        },
        {
          "name": "_bountyId",
          "type": "uint256"
        },
        {
          "name": "_issuerId",
          "type": "uint256"
        },
        {
          "name": "_issuers",
          "type": "address[]"
        },
        {
          "name": "_approvers",
          "type": "address[]"
        },
        {
          "name": "_data",
          "type": "string"
        },
        {
          "name": "_deadline",
          "type": "uint256"
        }
      ],
      "name": "changeBounty",
      "outputs": [],
      "payable": false,
      "stateMutability": "nonpayable",
      "type": "function"
    },
    {
      "constant": false,
      "inputs": [
        {
          "name": "_sender",
          "type": "address"
        },
        {
          "name": "_bountyId",
          "type": "uint256"
        },
        {
          "name": "_issuerId",
          "type": "uint256"
        },
        {
          "name": "_issuerIdToChange",
          "type": "uint256"
        },
        {
          "name": "_newIssuer",
          "type": "address"
        }
      ],
      "name": "changeIssuer",
      "outputs": [],
      "payable": false,
      "stateMutability": "nonpayable",
      "type": "function"
    },
    {
      "constant": false,
      "inputs": [
        {
          "name": "_sender",
          "type": "address"
        },
        {
          "name": "_bountyId",
          "type": "uint256"
        },
        {
          "name": "_issuerId",
          "type": "uint256"
        },
        {
          "name": "_approverId",
          "type": "uint256"
        },
        {
          "name": "_approver",
          "type": "address"
        }
      ],
      "name": "changeApprover",
      "outputs": [],
      "payable": false,
      "stateMutability": "nonpayable",
      "type": "function"
    },
    {
      "constant": false,
      "inputs": [
        {
          "name": "_sender",
          "type": "address"
        },
        {
          "name": "_bountyId",
          "type": "uint256"
        },
        {
          "name": "_issuerId",
          "type": "uint256"
        },
        {
          "name": "_issuerIdToChange",
          "type": "uint256"
        },
        {
          "name": "_approverIdToChange",
          "type": "uint256"
        },
        {
          "name": "_issuer",
          "type": "address"
        }
      ],
      "name": "changeIssuerAndApprover",
      "outputs": [],
      "payable": false,
      "stateMutability": "nonpayable",
      "type": "function"
    },
    {
      "constant": false,
      "inputs": [
        {
          "name": "_sender",
          "type": "address"
        },
        {
          "name": "_bountyId",
          "type": "uint256"
        },
        {
          "name": "_issuerId",
          "type": "uint256"
        },
        {
          "name": "_data",
          "type": "string"
        }
      ],
      "name": "changeData",
      "outputs": [],
      "payable": false,
      "stateMutability": "nonpayable",
      "type": "function"
    },
    {
      "constant": false,
      "inputs": [
        {
          "name": "_sender",
          "type": "address"
        },
        {
          "name": "_bountyId",
          "type": "uint256"
        },
        {
          "name": "_issuerId",
          "type": "uint256"
        },
        {
          "name": "_deadline",
          "type": "uint256"
        }
      ],
      "name": "changeDeadline",
      "outputs": [],
      "payable": false,
      "stateMutability": "nonpayable",
      "type": "function"
    },
    {
      "constant": false,
      "inputs": [
        {
          "name": "_sender",
          "type": "address"
        },
        {
          "name": "_bountyId",
          "type": "uint256"
        },
        {
          "name": "_issuerId",
          "type": "uint256"
        },
        {
          "name": "_issuers",
          "type": "address[]"
        }
      ],
      "name": "addIssuers",
      "outputs": [],
      "payable": false,
      "stateMutability": "nonpayable",
      "type": "function"
    },
    {
      "constant": false,
      "inputs": [
        {
          "name": "_sender",
          "type": "address"
        },
        {
          "name": "_bountyId",
          "type": "uint256"
        },
        {
          "name": "_issuerId",
          "type": "uint256"
        },
        {
          "name": "_approvers",
          "type": "address[]"
        }
      ],
      "name": "addApprovers",
      "outputs": [],
      "payable": false,
      "stateMutability": "nonpayable",
      "type": "function"
    },
    {
      "constant": true,
      "inputs": [
        {
          "name": "_bountyId",
          "type": "uint256"
        }
      ],
      "name": "getBounty",
      "outputs": [
        {
          "components": [
            {
              "name": "issuers",
              "type": "address[]"
            },
            {
              "name": "approvers",
              "type": "address[]"
            },
            {
              "name": "deadline",
              "type": "uint256"
            },
            {
              "name": "token",
              "type": "address"
            },
            {
              "name": "tokenVersion",
              "type": "uint256"
            },
            {
              "name": "balance",
              "type": "uint256"
            },
            {
              "name": "hasPaidOut",
              "type": "bool"
            },
            {
              "components": [
                {
                  "name": "fulfillers",
                  "type": "address[]"
                },
                {
                  "name": "submitter",
                  "type": "address"
                }
              ],
              "name": "fulfillments",
              "type": "tuple[]"
            },
            {
              "components": [
                {
                  "name": "contributor",
                  "type": "address"
                },
                {
                  "name": "amount",
                  "type": "uint256"
                },
                {
                  "name": "refunded",
                  "type": "bool"
                }
              ],
              "name": "contributions",
              "type": "tuple[]"
            }
          ],
          "name": "",
          "type": "tuple"
        }
      ],
      "payable": false,
      "stateMutability": "view",
      "type": "function"
    }
  ],
  "bytecode": "0x608060405234801561001057600080fd5b5033600360006101000a81548173ffffffffffffffffffffffffffffffffffffffff021916908373ffffffffffffffffffffffffffffffffffffffff160217905550615aa980620000626000396000f3fe6080604052600436106101b65760003560e01c80639e64d9bf116100ec578063c22215b81161008a578063dc2f874411610064578063dc2f8744146105a9578063ec41e4cd146105ea578063edba701314610627578063ee8c4bbf14610650576101b6565b8063c22215b81461052e578063c496045014610557578063c6a8b42b14610580576101b6565b8063aa17aaef116100c6578063aa17aaef14610488578063b178d768146104b1578063bae37556146104da578063c1107c1114610503576101b6565b80639e64d9bf1461041a578063a071fbd514610443578063a08f793c1461046c576101b6565b806361cf22131161015957806388db0f521161013357806388db0f52146103725780638da5cb5b1461039d57806393c1ccc9146103c857806397d76665146103f1576101b6565b806361cf2213146102f5578063720dc00c1461031e5780637ef8213c14610349576101b6565b80633756f3c8116101955780633756f3c81461023d5780634ac4e25a146102665780634daf1bb51461028f578063567b3d2e146102b8576101b6565b8062f27e38146101bb57806306060ae3146101e45780632092e25914610214575b600080fd5b3480156101c757600080fd5b506101e260048036036101dd91908101906149c2565b61068d565b005b6101fe60048036036101f9919081019061412a565b610982565b60405161020b9190615225565b60405180910390f35b34801561022057600080fd5b5061023b6004803603610236919081019061494b565b6109b1565b005b34801561024957600080fd5b50610264600480360361025f9190810190614273565b610bc6565b005b34801561027257600080fd5b5061028d600480360361028891908101906144b9565b610eb5565b005b34801561029b57600080fd5b506102b660048036036102b1919081019061456f565b610f97565b005b3480156102c457600080fd5b506102df60048036036102da9190810190614044565b6111eb565b6040516102ec9190615225565b60405180910390f35b34801561030157600080fd5b5061031c6004803603610317919081019061401b565b6113db565b005b34801561032a57600080fd5b506103336114d4565b60405161034091906151e8565b60405180910390f35b34801561035557600080fd5b50610370600480360361036b919081019061486d565b6114e7565b005b34801561037e57600080fd5b5061038761167c565b6040516103949190615225565b60405180910390f35b3480156103a957600080fd5b506103b2611682565b6040516103bf9190615136565b60405180910390f35b3480156103d457600080fd5b506103ef60048036036103ea9190810190614520565b6116a8565b005b3480156103fd57600080fd5b50610418600480360361041391908101906142ee565b6119b5565b005b34801561042657600080fd5b50610441600480360361043c919081019061494b565b611bba565b005b34801561044f57600080fd5b5061046a600480360361046591908101906147f2565b611dff565b005b61048660048036036104819190810190614224565b6120c3565b005b34801561049457600080fd5b506104af60048036036104aa91908101906148e8565b6125d8565b005b3480156104bd57600080fd5b506104d860048036036104d39190810190614665565b612788565b005b3480156104e657600080fd5b5061050160048036036104fc9190810190614a51565b6129a5565b005b34801561050f57600080fd5b50610518612c94565b6040516105259190615136565b60405180910390f35b34801561053a57600080fd5b5061055560048036036105509190810190614381565b612cba565b005b34801561056357600080fd5b5061057e6004803603610579919081019061474b565b612d88565b005b34801561058c57600080fd5b506105a760048036036105a291908101906145ea565b612f6e565b005b3480156105b557600080fd5b506105d060048036036105cb9190810190614b03565b6131c2565b6040516105e19594939291906154b6565b60405180910390f35b3480156105f657600080fd5b50610611600480360361060c9190810190614b2c565b613225565b60405161061e91906151e8565b60405180910390f35b34801561063357600080fd5b5061064e60048036036106499190810190614452565b613254565b005b34801561065c57600080fd5b5061067760048036036106729190810190614b03565b613326565b6040516106849190615203565b60405180910390f35b848073ffffffffffffffffffffffffffffffffffffffff163373ffffffffffffffffffffffffffffffffffffffff1614806107155750600460009054906101000a900473ffffffffffffffffffffffffffffffffffffffff1673ffffffffffffffffffffffffffffffffffffffff163373ffffffffffffffffffffffffffffffffffffffff16145b61071e57600080fd5b84600054811061072d57600080fd5b85856001600083815260200190815260200160002060070180549050811061075457600080fd5b88888760016000838152602001908152602001600020600101818154811061077857fe5b9060005260206000200160009054906101000a900473ffffffffffffffffffffffffffffffffffffffff1673ffffffffffffffffffffffffffffffffffffffff168373ffffffffffffffffffffffffffffffffffffffff16146107da57600080fd5b600460149054906101000a900460ff16156107f457600080fd5b6001600460146101000a81548160ff02191690831515021790555060018060008d815260200190815260200160002060060160006101000a81548160ff0219169083151502179055506000600160008d81526020019081526020016000206007018b8154811061086057fe5b90600052602060002090600202019050806000018054905089511461088457600080fd5b60008090505b816000018054905081101561091a5760008a82815181106108a757fe5b6020026020010151111561090d5761090c8d8360000183815481106108c857fe5b9060005260206000200160009054906101000a900473ffffffffffffffffffffffffffffffffffffffff168c84815181106108ff57fe5b602002602001015161371c565b5b808060010191505061088a565b507f4d54a229a804a61c5213bec479b1407ce270c57b24fd8299d6ea98b6b2ab05208c8c8f8c6040516109509493929190615577565b60405180910390a1506000600460146101000a81548160ff021916908315150217905550505050505050505050505050565b6000806109948a8a8a8a8a8a8a6111eb565b90506109a18a82856120c3565b8091505098975050505050505050565b848073ffffffffffffffffffffffffffffffffffffffff163373ffffffffffffffffffffffffffffffffffffffff161480610a395750600460009054906101000a900473ffffffffffffffffffffffffffffffffffffffff1673ffffffffffffffffffffffffffffffffffffffff163373ffffffffffffffffffffffffffffffffffffffff16145b610a4257600080fd5b846000548110610a5157600080fd5b868686600160008381526020019081526020016000206000018181548110610a7557fe5b9060005260206000200160009054906101000a900473ffffffffffffffffffffffffffffffffffffffff1673ffffffffffffffffffffffffffffffffffffffff168373ffffffffffffffffffffffffffffffffffffffff1614610ad757600080fd5b888760016000838152602001908152602001600020600101805490508110610afe57600080fd5b87600160008d81526020019081526020016000206001018a81548110610b2057fe5b9060005260206000200160006101000a81548173ffffffffffffffffffffffffffffffffffffffff021916908373ffffffffffffffffffffffffffffffffffffffff1602179055507f43a4e4542993b08827123085341d156186f40b28b6343f301c246a1d5f49d9f78b8d600160008f8152602001908152602001600020600101604051610bb093929190615311565b60405180910390a1505050505050505050505050565b838073ffffffffffffffffffffffffffffffffffffffff163373ffffffffffffffffffffffffffffffffffffffff161480610c4e5750600460009054906101000a900473ffffffffffffffffffffffffffffffffffffffff1673ffffffffffffffffffffffffffffffffffffffff163373ffffffffffffffffffffffffffffffffffffffff16145b610c5757600080fd5b836000548110610c6657600080fd5b858585600160008381526020019081526020016000206000018181548110610c8a57fe5b9060005260206000200160009054906101000a900473ffffffffffffffffffffffffffffffffffffffff1673ffffffffffffffffffffffffffffffffffffffff168373ffffffffffffffffffffffffffffffffffffffff1614610cec57600080fd5b600460149054906101000a900460ff1615610d0657600080fd5b6001600460146101000a81548160ff0219169083151502179055506000600160008a8152602001908152602001600020600401541480610d5c57506014600160008a815260200190815260200160002060040154145b15610dca576001865114610d6f57600080fd5b600160008981526020019081526020016000206005015486600081518110610d9357fe5b60200260200101511115610da657600080fd5b610dc5888a88600081518110610db857fe5b602002602001015161371c565b610e54565b60008090505b8651811015610e5257600260008a81526020019081526020016000206000888381518110610dfa57fe5b6020026020010151815260200190815260200160002060009054906101000a900460ff16610e2757600080fd5b610e45898b898481518110610e3857fe5b602002602001015161371c565b8080600101915050610dd0565b505b7fc9db45671da2b4994b84d56a8832d4e0bcc3722230dffce39df6886f9ec2d7d6888a88604051610e87939291906152d3565b60405180910390a16000600460146101000a81548160ff021916908315150217905550505050505050505050565b828073ffffffffffffffffffffffffffffffffffffffff163373ffffffffffffffffffffffffffffffffffffffff161480610f3d5750600460009054906101000a900473ffffffffffffffffffffffffffffffffffffffff1673ffffffffffffffffffffffffffffffffffffffff163373ffffffffffffffffffffffffffffffffffffffff16145b610f4657600080fd5b826000548110610f5557600080fd5b7fd54885079d7edd9bea77e3f09e83bd65a121db3d3a14892227e0d2cffe73970f848685604051610f8893929190615441565b60405180910390a15050505050565b838073ffffffffffffffffffffffffffffffffffffffff163373ffffffffffffffffffffffffffffffffffffffff16148061101f5750600460009054906101000a900473ffffffffffffffffffffffffffffffffffffffff1673ffffffffffffffffffffffffffffffffffffffff163373ffffffffffffffffffffffffffffffffffffffff16145b61102857600080fd5b83600054811061103757600080fd5b84846001600083815260200190815260200160002060000180549050811061105e57600080fd5b87878760016000838152602001908152602001600020600001818154811061108257fe5b9060005260206000200160009054906101000a900473ffffffffffffffffffffffffffffffffffffffff1673ffffffffffffffffffffffffffffffffffffffff168373ffffffffffffffffffffffffffffffffffffffff16146110e457600080fd5b60008090505b885181101561118d57600160008c815260200190815260200160002060010189828151811061111557fe5b602002602001015190806001815401808255809150509060018203906000526020600020016000909192909190916101000a81548173ffffffffffffffffffffffffffffffffffffffff021916908373ffffffffffffffffffffffffffffffffffffffff1602179055505080806001019150506110ea565b507f43a4e4542993b08827123085341d156186f40b28b6343f301c246a1d5f49d9f78a8c600160008e81526020019081526020016000206001016040516111d693929190615311565b60405180910390a15050505050505050505050565b6000878073ffffffffffffffffffffffffffffffffffffffff163373ffffffffffffffffffffffffffffffffffffffff1614806112755750600460009054906101000a900473ffffffffffffffffffffffffffffffffffffffff1673ffffffffffffffffffffffffffffffffffffffff163373ffffffffffffffffffffffffffffffffffffffff16145b61127e57600080fd5b600083148061128d5750601483145b8061129957506102d183145b6112a257600080fd5b6000885111806112b3575060008751115b6112bc57600080fd5b6000805490506000600160008381526020019081526020016000209050898160000190805190602001906112f1929190613adc565b508881600101908051906020019061130a929190613b66565b508681600201819055508481600401819055506000851461136957858160030160006101000a81548173ffffffffffffffffffffffffffffffffffffffff021916908373ffffffffffffffffffffffffffffffffffffffff1602179055505b61137f6001600054613aab90919063ffffffff16565b6000819055507feea6c8039af43860e84bc876245a0d129d92b942390135da1051b219149c100e828c8c8c8c8c8c8c6040516113c2989796959493929190615240565b60405180910390a1819350505050979650505050505050565b600360009054906101000a900473ffffffffffffffffffffffffffffffffffffffff1673ffffffffffffffffffffffffffffffffffffffff163373ffffffffffffffffffffffffffffffffffffffff161461143557600080fd5b600073ffffffffffffffffffffffffffffffffffffffff16600460009054906101000a900473ffffffffffffffffffffffffffffffffffffffff1673ffffffffffffffffffffffffffffffffffffffff161461149057600080fd5b80600460006101000a81548173ffffffffffffffffffffffffffffffffffffffff021916908373ffffffffffffffffffffffffffffffffffffffff16021790555050565b600460149054906101000a900460ff1681565b838073ffffffffffffffffffffffffffffffffffffffff163373ffffffffffffffffffffffffffffffffffffffff16148061156f5750600460009054906101000a900473ffffffffffffffffffffffffffffffffffffffff1673ffffffffffffffffffffffffffffffffffffffff163373ffffffffffffffffffffffffffffffffffffffff16145b61157857600080fd5b83600054811061158757600080fd5b8484600160008381526020019081526020016000206000018054905081106115ae57600080fd5b8787876001600083815260200190815260200160002060000181815481106115d257fe5b9060005260206000200160009054906101000a900473ffffffffffffffffffffffffffffffffffffffff1673ffffffffffffffffffffffffffffffffffffffff168373ffffffffffffffffffffffffffffffffffffffff161461163457600080fd5b7fdc41a74d84036920901cf73075fc7f917d75b1f5dbd7955c12f92033362472338a8c8a60405161166793929190615441565b60405180910390a15050505050505050505050565b60005481565b600360009054906101000a900473ffffffffffffffffffffffffffffffffffffffff1681565b828073ffffffffffffffffffffffffffffffffffffffff163373ffffffffffffffffffffffffffffffffffffffff1614806117305750600460009054906101000a900473ffffffffffffffffffffffffffffffffffffffff1673ffffffffffffffffffffffffffffffffffffffff163373ffffffffffffffffffffffffffffffffffffffff16145b61173957600080fd5b82600054811061174857600080fd5b83836001600083815260200190815260200160002060080180549050811061176f57600080fd5b86868660016000838152602001908152602001600020600801818154811061179357fe5b906000526020600020906003020160000160009054906101000a900473ffffffffffffffffffffffffffffffffffffffff1673ffffffffffffffffffffffffffffffffffffffff168373ffffffffffffffffffffffffffffffffffffffff16146117fc57600080fd5b886001600082815260200190815260200160002060060160009054906101000a900460ff161561182b57600080fd5b898960016000838152602001908152602001600020600801818154811061184e57fe5b906000526020600020906003020160020160009054906101000a900460ff161561187757600080fd5b600460149054906101000a900460ff161561189157600080fd5b6001600460146101000a81548160ff021916908315150217905550600160008d81526020019081526020016000206002015442116118ce57600080fd5b6000600160008e81526020019081526020016000206008018c815481106118f157fe5b9060005260206000209060030201905060018160020160006101000a81548160ff0219169083151502179055506119518d8260000160009054906101000a900473ffffffffffffffffffffffffffffffffffffffff16836001015461371c565b7ffb1da5cbf027ad18b7c1f786bf81e9920cc0db09d7e299a8e4f3dbb64ce32f018d8d604051611982929190615509565b60405180910390a1506000600460146101000a81548160ff02191690831515021790555050505050505050505050505050565b838073ffffffffffffffffffffffffffffffffffffffff163373ffffffffffffffffffffffffffffffffffffffff161480611a3d5750600460009054906101000a900473ffffffffffffffffffffffffffffffffffffffff1673ffffffffffffffffffffffffffffffffffffffff163373ffffffffffffffffffffffffffffffffffffffff16145b611a4657600080fd5b836000548110611a5557600080fd5b60016000868152602001908152602001600020600201544210611a7757600080fd5b6000845111611a8557600080fd5b6001600086815260200190815260200160002060070160405180604001604052808681526020018873ffffffffffffffffffffffffffffffffffffffff16815250908060018154018082558091505090600182039060005260206000209060020201600090919290919091506000820151816000019080519060200190611b0d929190613bf0565b5060208201518160010160006101000a81548173ffffffffffffffffffffffffffffffffffffffff021916908373ffffffffffffffffffffffffffffffffffffffff1602179055505050507fb9fb09db36801e95ddbb658a96b7ecf81b9b7e105e4a82d8887b1e7eadd45b84856001806000898152602001908152602001600020600701805490500386868a604051611baa959493929190615616565b60405180910390a1505050505050565b848073ffffffffffffffffffffffffffffffffffffffff163373ffffffffffffffffffffffffffffffffffffffff161480611c425750600460009054906101000a900473ffffffffffffffffffffffffffffffffffffffff1673ffffffffffffffffffffffffffffffffffffffff163373ffffffffffffffffffffffffffffffffffffffff16145b611c4b57600080fd5b846000548110611c5a57600080fd5b858460016000838152602001908152602001600020600001805490508110611c8157600080fd5b888888600160008381526020019081526020016000206000018181548110611ca557fe5b9060005260206000200160009054906101000a900473ffffffffffffffffffffffffffffffffffffffff1673ffffffffffffffffffffffffffffffffffffffff168373ffffffffffffffffffffffffffffffffffffffff1614611d0757600080fd5b600160008c8152602001908152602001600020600001805490508a1080611d2e575060008a145b611d3757600080fd5b87600160008d81526020019081526020016000206000018a81548110611d5957fe5b9060005260206000200160006101000a81548173ffffffffffffffffffffffffffffffffffffffff021916908373ffffffffffffffffffffffffffffffffffffffff1602179055507fc969620b1b90646a0d597289d87dcf90d4cc4e554bddf0c003dfc05954a6d3598b8d600160008f8152602001908152602001600020600001604051611de9939291906153c5565b60405180910390a1505050505050505050505050565b838073ffffffffffffffffffffffffffffffffffffffff163373ffffffffffffffffffffffffffffffffffffffff161480611e875750600460009054906101000a900473ffffffffffffffffffffffffffffffffffffffff1673ffffffffffffffffffffffffffffffffffffffff163373ffffffffffffffffffffffffffffffffffffffff16145b611e9057600080fd5b836000548110611e9f57600080fd5b858585600160008381526020019081526020016000206000018181548110611ec357fe5b9060005260206000200160009054906101000a900473ffffffffffffffffffffffffffffffffffffffff1673ffffffffffffffffffffffffffffffffffffffff168373ffffffffffffffffffffffffffffffffffffffff1614611f2557600080fd5b600460149054906101000a900460ff1615611f3f57600080fd5b6001600460146101000a81548160ff02191690831515021790555060008090505b865181101561206157600160008a815260200190815260200160002060080180549050878281518110611f8f57fe5b602002602001015110611fa157600080fd5b6000600160008b8152602001908152602001600020600801888381518110611fc557fe5b602002602001015181548110611fd757fe5b906000526020600020906003020190508060020160009054906101000a900460ff161561200357600080fd5b60018160020160006101000a81548160ff0219169083151502179055506120538a8260000160009054906101000a900473ffffffffffffffffffffffffffffffffffffffff16836001015461371c565b508080600101915050611f60565b507fc55c552370ad68c2faed667a8224a8ab373e39368872484a40619b1e884336de888a8860405161209593929190615403565b60405180910390a16000600460146101000a81548160ff021916908315150217905550505050505050505050565b828073ffffffffffffffffffffffffffffffffffffffff163373ffffffffffffffffffffffffffffffffffffffff16148061214b5750600460009054906101000a900473ffffffffffffffffffffffffffffffffffffffff1673ffffffffffffffffffffffffffffffffffffffff163373ffffffffffffffffffffffffffffffffffffffff16145b61215457600080fd5b82600054811061216357600080fd5b600460149054906101000a900460ff161561217d57600080fd5b6001600460146101000a81548160ff021916908315150217905550600083116121a557600080fd5b6001600085815260200190815260200160002060080160405180606001604052808773ffffffffffffffffffffffffffffffffffffffff168152602001858152602001600015158152509080600181540180825580915050906001820390600052602060002090600302016000909192909190915060008201518160000160006101000a81548173ffffffffffffffffffffffffffffffffffffffff021916908373ffffffffffffffffffffffffffffffffffffffff1602179055506020820151816001015560408201518160020160006101000a81548160ff021916908315150217905550505050600060016000868152602001908152602001600020600401541415612301576122d6836001600087815260200190815260200160002060050154613aab90919063ffffffff16565b60016000868152602001908152602001600020600501819055508234146122fc57600080fd5b61255e565b60146001600086815260200190815260200160002060040154141561244357612349836001600087815260200190815260200160002060050154613aab90919063ffffffff16565b60016000868152602001908152602001600020600501819055506000341461237057600080fd5b6001600085815260200190815260200160002060030160009054906101000a900473ffffffffffffffffffffffffffffffffffffffff1673ffffffffffffffffffffffffffffffffffffffff166323b872dd8630866040518463ffffffff1660e01b81526004016123e393929190615151565b602060405180830381600087803b1580156123fd57600080fd5b505af1158015612411573d6000803e3d6000fd5b505050506040513d601f19601f820116820180604052506124359190810190614ada565b61243e57600080fd5b61255d565b6102d16001600086815260200190815260200160002060040154141561255757600160026000868152602001908152602001600020600085815260200190815260200160002060006101000a81548160ff021916908315150217905550600034146124ad57600080fd5b6001600085815260200190815260200160002060030160009054906101000a900473ffffffffffffffffffffffffffffffffffffffff1673ffffffffffffffffffffffffffffffffffffffff166323b872dd8630866040518463ffffffff1660e01b815260040161252093929190615151565b600060405180830381600087803b15801561253a57600080fd5b505af115801561254e573d6000803e3d6000fd5b5050505061255c565b600080fd5b5b5b7f7431e5e30247dcb2379eab9b0e60e49038c5ddb5cac27f27a17e950c0220a693846001806000888152602001908152602001600020600801805490500387866040516125ae9493929190615532565b60405180910390a16000600460146101000a81548160ff0219169083151502179055505050505050565b838073ffffffffffffffffffffffffffffffffffffffff163373ffffffffffffffffffffffffffffffffffffffff1614806126605750600460009054906101000a900473ffffffffffffffffffffffffffffffffffffffff1673ffffffffffffffffffffffffffffffffffffffff163373ffffffffffffffffffffffffffffffffffffffff16145b61266957600080fd5b83600054811061267857600080fd5b84846001600083815260200190815260200160002060000180549050811061269f57600080fd5b8787876001600083815260200190815260200160002060000181815481106126c357fe5b9060005260206000200160009054906101000a900473ffffffffffffffffffffffffffffffffffffffff1673ffffffffffffffffffffffffffffffffffffffff168373ffffffffffffffffffffffffffffffffffffffff161461272557600080fd5b87600160008c8152602001908152602001600020600201819055507f946e60a77ecf689f0595d6dcd6cf1537564a1d82472a69a3be00f7e8cb6f8b7d8a8c8a6040516127739392919061547f565b60405180910390a15050505050505050505050565b868073ffffffffffffffffffffffffffffffffffffffff163373ffffffffffffffffffffffffffffffffffffffff1614806128105750600460009054906101000a900473ffffffffffffffffffffffffffffffffffffffff1673ffffffffffffffffffffffffffffffffffffffff163373ffffffffffffffffffffffffffffffffffffffff16145b61281957600080fd5b600054871061282757600080fd5b6001600088815260200190815260200160002060000180549050861061284c57600080fd5b60016000888152602001908152602001600020600001868154811061286d57fe5b9060005260206000200160009054906101000a900473ffffffffffffffffffffffffffffffffffffffff1673ffffffffffffffffffffffffffffffffffffffff168873ffffffffffffffffffffffffffffffffffffffff16146128cf57600080fd5b6000855111806128e0575060008451115b6128e957600080fd5b84600160008981526020019081526020016000206000019080519060200190612913929190613adc565b508360016000898152602001908152602001600020600101908051906020019061293e929190613c7a565b508160016000898152602001908152602001600020600201819055507f588a0d2c7e36ab3050cd6b8b12441530ae5407613e9f2a62dc10bc43a302ed9c8789878787876040516129939695949392919061534f565b60405180910390a15050505050505050565b858073ffffffffffffffffffffffffffffffffffffffff163373ffffffffffffffffffffffffffffffffffffffff161480612a2d5750600460009054906101000a900473ffffffffffffffffffffffffffffffffffffffff1673ffffffffffffffffffffffffffffffffffffffff163373ffffffffffffffffffffffffffffffffffffffff16145b612a3657600080fd5b868686600160008381526020019081526020016000206000018181548110612a5a57fe5b9060005260206000200160009054906101000a900473ffffffffffffffffffffffffffffffffffffffff1673ffffffffffffffffffffffffffffffffffffffff168373ffffffffffffffffffffffffffffffffffffffff1614612abc57600080fd5b6000548910612aca57600080fd5b600160008a8152602001908152602001600020600101805490508610612aef57600080fd5b600160008a8152602001908152602001600020600001805490508710612b1457600080fd5b84600160008b81526020019081526020016000206000018881548110612b3657fe5b9060005260206000200160006101000a81548173ffffffffffffffffffffffffffffffffffffffff021916908373ffffffffffffffffffffffffffffffffffffffff16021790555084600160008b81526020019081526020016000206001018781548110612ba057fe5b9060005260206000200160006101000a81548173ffffffffffffffffffffffffffffffffffffffff021916908373ffffffffffffffffffffffffffffffffffffffff1602179055507fc969620b1b90646a0d597289d87dcf90d4cc4e554bddf0c003dfc05954a6d359898b600160008d8152602001908152602001600020600001604051612c30939291906153c5565b60405180910390a17f43a4e4542993b08827123085341d156186f40b28b6343f301c246a1d5f49d9f7898b600160008d8152602001908152602001600020600101604051612c8093929190615311565b60405180910390a150505050505050505050565b600460009054906101000a900473ffffffffffffffffffffffffffffffffffffffff1681565b858073ffffffffffffffffffffffffffffffffffffffff163373ffffffffffffffffffffffffffffffffffffffff161480612d425750600460009054906101000a900473ffffffffffffffffffffffffffffffffffffffff1673ffffffffffffffffffffffffffffffffffffffff163373ffffffffffffffffffffffffffffffffffffffff16145b612d4b57600080fd5b612d57878787876119b5565b612d7f878760018060008b81526020019081526020016000206007018054905003868661068d565b50505050505050565b848073ffffffffffffffffffffffffffffffffffffffff163373ffffffffffffffffffffffffffffffffffffffff161480612e105750600460009054906101000a900473ffffffffffffffffffffffffffffffffffffffff1673ffffffffffffffffffffffffffffffffffffffff163373ffffffffffffffffffffffffffffffffffffffff16145b612e1957600080fd5b846000548110612e2857600080fd5b858560016000838152602001908152602001600020600701805490508110612e4f57600080fd5b888888600160008381526020019081526020016000206007018181548110612e7357fe5b906000526020600020906002020160010160009054906101000a900473ffffffffffffffffffffffffffffffffffffffff1673ffffffffffffffffffffffffffffffffffffffff168373ffffffffffffffffffffffffffffffffffffffff1614612edc57600080fd5b88600160008d81526020019081526020016000206007018b81548110612efe57fe5b90600052602060002090600202016000019080519060200190612f22929190613adc565b507fde0d52ad68b0a792924de426fb3a2f2c1ce908be531894e35d85e533fbb8ec168b8b8b8b604051612f5894939291906155c3565b60405180910390a1505050505050505050505050565b838073ffffffffffffffffffffffffffffffffffffffff163373ffffffffffffffffffffffffffffffffffffffff161480612ff65750600460009054906101000a900473ffffffffffffffffffffffffffffffffffffffff1673ffffffffffffffffffffffffffffffffffffffff163373ffffffffffffffffffffffffffffffffffffffff16145b612fff57600080fd5b83600054811061300e57600080fd5b84846001600083815260200190815260200160002060000180549050811061303557600080fd5b87878760016000838152602001908152602001600020600001818154811061305957fe5b9060005260206000200160009054906101000a900473ffffffffffffffffffffffffffffffffffffffff1673ffffffffffffffffffffffffffffffffffffffff168373ffffffffffffffffffffffffffffffffffffffff16146130bb57600080fd5b60008090505b885181101561316457600160008c81526020019081526020016000206000018982815181106130ec57fe5b602002602001015190806001815401808255809150509060018203906000526020600020016000909192909190916101000a81548173ffffffffffffffffffffffffffffffffffffffff021916908373ffffffffffffffffffffffffffffffffffffffff1602179055505080806001019150506130c1565b507fc969620b1b90646a0d597289d87dcf90d4cc4e554bddf0c003dfc05954a6d3598a8c600160008e81526020019081526020016000206000016040516131ad939291906153c5565b60405180910390a15050505050505050505050565b60016020528060005260406000206000915090508060020154908060030160009054906101000a900473ffffffffffffffffffffffffffffffffffffffff16908060040154908060050154908060060160009054906101000a900460ff16905085565b60026020528160005260406000206020528060005260406000206000915091509054906101000a900460ff1681565b828073ffffffffffffffffffffffffffffffffffffffff163373ffffffffffffffffffffffffffffffffffffffff1614806132dc5750600460009054906101000a900473ffffffffffffffffffffffffffffffffffffffff1673ffffffffffffffffffffffffffffffffffffffff163373ffffffffffffffffffffffffffffffffffffffff16145b6132e557600080fd5b60008090505b825181101561331f57613312858585848151811061330557fe5b60200260200101516116a8565b80806001019150506132eb565b5050505050565b61332e613d04565b6001600083815260200190815260200160002060405180610120016040529081600082018054806020026020016040519081016040528092919081815260200182805480156133d257602002820191906000526020600020905b8160009054906101000a900473ffffffffffffffffffffffffffffffffffffffff1673ffffffffffffffffffffffffffffffffffffffff1681526020019060010190808311613388575b505050505081526020016001820180548060200260200160405190810160405280929190818152602001828054801561346057602002820191906000526020600020905b8160009054906101000a900473ffffffffffffffffffffffffffffffffffffffff1673ffffffffffffffffffffffffffffffffffffffff1681526020019060010190808311613416575b50505050508152602001600282015481526020016003820160009054906101000a900473ffffffffffffffffffffffffffffffffffffffff1673ffffffffffffffffffffffffffffffffffffffff1673ffffffffffffffffffffffffffffffffffffffff16815260200160048201548152602001600582015481526020016006820160009054906101000a900460ff1615151515815260200160078201805480602002602001604051908101604052809291908181526020016000905b828210156136335783829060005260206000209060020201604051806040016040529081600082018054806020026020016040519081016040528092919081815260200182805480156135c557602002820191906000526020600020905b8160009054906101000a900473ffffffffffffffffffffffffffffffffffffffff1673ffffffffffffffffffffffffffffffffffffffff168152602001906001019080831161357b575b505050505081526020016001820160009054906101000a900473ffffffffffffffffffffffffffffffffffffffff1673ffffffffffffffffffffffffffffffffffffffff1673ffffffffffffffffffffffffffffffffffffffff16815250508152602001906001019061351d565b50505050815260200160088201805480602002602001604051908101604052809291908181526020016000905b8282101561370d57838290600052602060002090600302016040518060600160405290816000820160009054906101000a900473ffffffffffffffffffffffffffffffffffffffff1673ffffffffffffffffffffffffffffffffffffffff1673ffffffffffffffffffffffffffffffffffffffff168152602001600182015481526020016002820160009054906101000a900460ff16151515158152505081526020019060010190613660565b50505050815250509050919050565b6000600160008581526020019081526020016000206004015414156137fa576000811161374857600080fd5b806001600085815260200190815260200160002060050154101561376b57600080fd5b613794816001600086815260200190815260200160002060050154613ac590919063ffffffff16565b60016000858152602001908152602001600020600501819055508173ffffffffffffffffffffffffffffffffffffffff166108fc829081150290604051600060405180830381858888f193505050501580156137f4573d6000803e3d6000fd5b50613aa6565b60146001600085815260200190815260200160002060040154141561395d576000811161382657600080fd5b806001600085815260200190815260200160002060050154101561384957600080fd5b613872816001600086815260200190815260200160002060050154613ac590919063ffffffff16565b60016000858152602001908152602001600020600501819055506001600084815260200190815260200160002060030160009054906101000a900473ffffffffffffffffffffffffffffffffffffffff1673ffffffffffffffffffffffffffffffffffffffff1663a9059cbb83836040518363ffffffff1660e01b81526004016138fd929190615188565b602060405180830381600087803b15801561391757600080fd5b505af115801561392b573d6000803e3d6000fd5b505050506040513d601f19601f8201168201806040525061394f9190810190614ada565b61395857600080fd5b613aa5565b6102d160016000858152602001908152602001600020600401541415613a9f5760026000848152602001908152602001600020600082815260200190815260200160002060009054906101000a900460ff166139b857600080fd5b600060026000858152602001908152602001600020600083815260200190815260200160002060006101000a81548160ff0219169083151502179055506001600084815260200190815260200160002060030160009054906101000a900473ffffffffffffffffffffffffffffffffffffffff1673ffffffffffffffffffffffffffffffffffffffff166323b872dd3084846040518463ffffffff1660e01b8152600401613a68939291906151b1565b600060405180830381600087803b158015613a8257600080fd5b505af1158015613a96573d6000803e3d6000fd5b50505050613aa4565b600080fd5b5b5b505050565b6000818301905082811015613abc57fe5b80905092915050565b600082821115613ad157fe5b818303905092915050565b828054828255906000526020600020908101928215613b55579160200282015b82811115613b545782518260006101000a81548173ffffffffffffffffffffffffffffffffffffffff021916908373ffffffffffffffffffffffffffffffffffffffff16021790555091602001919060010190613afc565b5b509050613b629190613d68565b5090565b828054828255906000526020600020908101928215613bdf579160200282015b82811115613bde5782518260006101000a81548173ffffffffffffffffffffffffffffffffffffffff021916908373ffffffffffffffffffffffffffffffffffffffff16021790555091602001919060010190613b86565b5b509050613bec9190613dab565b5090565b828054828255906000526020600020908101928215613c69579160200282015b82811115613c685782518260006101000a81548173ffffffffffffffffffffffffffffffffffffffff021916908373ffffffffffffffffffffffffffffffffffffffff16021790555091602001919060010190613c10565b5b509050613c769190613d68565b5090565b828054828255906000526020600020908101928215613cf3579160200282015b82811115613cf25782518260006101000a81548173ffffffffffffffffffffffffffffffffffffffff021916908373ffffffffffffffffffffffffffffffffffffffff16021790555091602001919060010190613c9a565b5b509050613d009190613dab565b5090565b604051806101200160405280606081526020016060815260200160008152602001600073ffffffffffffffffffffffffffffffffffffffff168152602001600081526020016000815260200160001515815260200160608152602001606081525090565b613da891905b80821115613da457600081816101000a81549073ffffffffffffffffffffffffffffffffffffffff021916905550600101613d6e565b5090565b90565b613deb91905b80821115613de757600081816101000a81549073ffffffffffffffffffffffffffffffffffffffff021916905550600101613db1565b5090565b90565b6000613dfa823561598c565b905092915050565b6000613e0e823561599e565b905092915050565b600082601f830112613e2757600080fd5b8135613e3a613e35826156a4565b615677565b91508181835260208401935060208101905083856020840282011115613e5f57600080fd5b60005b83811015613e8f5781613e758882613dee565b845260208401935060208301925050600181019050613e62565b5050505092915050565b600082601f830112613eaa57600080fd5b8135613ebd613eb8826156cc565b615677565b91508181835260208401935060208101905083856020840282011115613ee257600080fd5b60005b83811015613f125781613ef88882613e02565b845260208401935060208301925050600181019050613ee5565b5050505092915050565b600082601f830112613f2d57600080fd5b8135613f40613f3b826156f4565b615677565b91508181835260208401935060208101905083856020840282011115613f6557600080fd5b60005b83811015613f955781613f7b8882614007565b845260208401935060208301925050600181019050613f68565b5050505092915050565b6000613fab82516159b0565b905092915050565b600082601f830112613fc457600080fd5b8135613fd7613fd28261571c565b615677565b91508082526020830160208301858383011115613ff357600080fd5b613ffe838284615a1c565b50505092915050565b600061401382356159dc565b905092915050565b60006020828403121561402d57600080fd5b600061403b84828501613dee565b91505092915050565b600080600080600080600060e0888a03121561405f57600080fd5b600061406d8a828b01613e02565b975050602088013567ffffffffffffffff81111561408a57600080fd5b6140968a828b01613e99565b965050604088013567ffffffffffffffff8111156140b357600080fd5b6140bf8a828b01613e16565b955050606088013567ffffffffffffffff8111156140dc57600080fd5b6140e88a828b01613fb3565b94505060806140f98a828b01614007565b93505060a061410a8a828b01613dee565b92505060c061411b8a828b01614007565b91505092959891949750929550565b600080600080600080600080610100898b03121561414757600080fd5b60006141558b828c01613e02565b985050602089013567ffffffffffffffff81111561417257600080fd5b61417e8b828c01613e99565b975050604089013567ffffffffffffffff81111561419b57600080fd5b6141a78b828c01613e16565b965050606089013567ffffffffffffffff8111156141c457600080fd5b6141d08b828c01613fb3565b95505060806141e18b828c01614007565b94505060a06141f28b828c01613dee565b93505060c06142038b828c01614007565b92505060e06142148b828c01614007565b9150509295985092959890939650565b60008060006060848603121561423957600080fd5b600061424786828701613e02565b935050602061425886828701614007565b925050604061426986828701614007565b9150509250925092565b6000806000806080858703121561428957600080fd5b600061429787828801613e02565b94505060206142a887828801614007565b93505060406142b987828801614007565b925050606085013567ffffffffffffffff8111156142d657600080fd5b6142e287828801613f1c565b91505092959194509250565b6000806000806080858703121561430457600080fd5b600061431287828801613dee565b945050602061432387828801614007565b935050604085013567ffffffffffffffff81111561434057600080fd5b61434c87828801613e99565b925050606085013567ffffffffffffffff81111561436957600080fd5b61437587828801613fb3565b91505092959194509250565b60008060008060008060c0878903121561439a57600080fd5b60006143a889828a01613dee565b96505060206143b989828a01614007565b955050604087013567ffffffffffffffff8111156143d657600080fd5b6143e289828a01613e99565b945050606087013567ffffffffffffffff8111156143ff57600080fd5b61440b89828a01613fb3565b935050608061441c89828a01614007565b92505060a087013567ffffffffffffffff81111561443957600080fd5b61444589828a01613f1c565b9150509295509295509295565b60008060006060848603121561446757600080fd5b600061447586828701613dee565b935050602061448686828701614007565b925050604084013567ffffffffffffffff8111156144a357600080fd5b6144af86828701613f1c565b9150509250925092565b6000806000606084860312156144ce57600080fd5b60006144dc86828701613dee565b93505060206144ed86828701614007565b925050604084013567ffffffffffffffff81111561450a57600080fd5b61451686828701613fb3565b9150509250925092565b60008060006060848603121561453557600080fd5b600061454386828701613dee565b935050602061455486828701614007565b925050604061456586828701614007565b9150509250925092565b6000806000806080858703121561458557600080fd5b600061459387828801613dee565b94505060206145a487828801614007565b93505060406145b587828801614007565b925050606085013567ffffffffffffffff8111156145d257600080fd5b6145de87828801613e16565b91505092959194509250565b6000806000806080858703121561460057600080fd5b600061460e87828801613dee565b945050602061461f87828801614007565b935050604061463087828801614007565b925050606085013567ffffffffffffffff81111561464d57600080fd5b61465987828801613e99565b91505092959194509250565b600080600080600080600060e0888a03121561468057600080fd5b600061468e8a828b01613dee565b975050602061469f8a828b01614007565b96505060406146b08a828b01614007565b955050606088013567ffffffffffffffff8111156146cd57600080fd5b6146d98a828b01613e99565b945050608088013567ffffffffffffffff8111156146f657600080fd5b6147028a828b01613e99565b93505060a088013567ffffffffffffffff81111561471f57600080fd5b61472b8a828b01613fb3565b92505060c061473c8a828b01614007565b91505092959891949750929550565b600080600080600060a0868803121561476357600080fd5b600061477188828901613dee565b955050602061478288828901614007565b945050604061479388828901614007565b935050606086013567ffffffffffffffff8111156147b057600080fd5b6147bc88828901613e99565b925050608086013567ffffffffffffffff8111156147d957600080fd5b6147e588828901613fb3565b9150509295509295909350565b6000806000806080858703121561480857600080fd5b600061481687828801613dee565b945050602061482787828801614007565b935050604061483887828801614007565b925050606085013567ffffffffffffffff81111561485557600080fd5b61486187828801613f1c565b91505092959194509250565b6000806000806080858703121561488357600080fd5b600061489187828801613dee565b94505060206148a287828801614007565b93505060406148b387828801614007565b925050606085013567ffffffffffffffff8111156148d057600080fd5b6148dc87828801613fb3565b91505092959194509250565b600080600080608085870312156148fe57600080fd5b600061490c87828801613dee565b945050602061491d87828801614007565b935050604061492e87828801614007565b925050606061493f87828801614007565b91505092959194509250565b600080600080600060a0868803121561496357600080fd5b600061497188828901613dee565b955050602061498288828901614007565b945050604061499388828901614007565b93505060606149a488828901614007565b92505060806149b588828901613e02565b9150509295509295909350565b600080600080600060a086880312156149da57600080fd5b60006149e888828901613dee565b95505060206149f988828901614007565b9450506040614a0a88828901614007565b9350506060614a1b88828901614007565b925050608086013567ffffffffffffffff811115614a3857600080fd5b614a4488828901613f1c565b9150509295509295909350565b60008060008060008060c08789031215614a6a57600080fd5b6000614a7889828a01613dee565b9650506020614a8989828a01614007565b9550506040614a9a89828a01614007565b9450506060614aab89828a01614007565b9350506080614abc89828a01614007565b92505060a0614acd89828a01613e02565b9150509295509295509295565b600060208284031215614aec57600080fd5b6000614afa84828501613f9f565b91505092915050565b600060208284031215614b1557600080fd5b6000614b2384828501614007565b91505092915050565b60008060408385031215614b3f57600080fd5b6000614b4d85828601614007565b9250506020614b5e85828601614007565b9150509250929050565b6000614b748383614beb565b60208301905092915050565b6000614b8c8383614c09565b60208301905092915050565b6000614ba48383615099565b60608301905092915050565b6000614bbc83836150db565b905092915050565b6000614bd08383615118565b60208301905092915050565b614be5816159e6565b82525050565b614bf481615944565b82525050565b614c0381615944565b82525050565b614c1281615932565b82525050565b614c2181615932565b82525050565b6000614c32826157d2565b614c3c81856158bb565b9350614c4783615755565b60005b82811015614c7557614c5d868351614b80565b9550614c6882615842565b9150600181019050614c4a565b50849250505092915050565b6000614c8c826157c7565b614c9681856158aa565b9350614ca183615748565b60005b82811015614ccf57614cb7868351614b80565b9550614cc282615835565b9150600181019050614ca4565b50849250505092915050565b6000614ce6826157dd565b614cf081856158bb565b9350614cfb83615762565b60005b82811015614d2957614d11868354614b80565b9550614d1c8261584f565b9150600181019050614cfe565b50849250505092915050565b6000614d40826157f3565b614d4a81856158dd565b9350614d5583615781565b60005b82811015614d8357614d6b868351614b68565b9550614d7682615869565b9150600181019050614d58565b50849250505092915050565b6000614d9a826157e8565b614da481856158cc565b9350614daf83615774565b60005b82811015614ddd57614dc5868351614b68565b9550614dd08261585c565b9150600181019050614db2565b50849250505092915050565b6000614df4826157fe565b614dfe81856158dd565b9350614e098361578e565b60005b82811015614e3757614e1f868354614b68565b9550614e2a82615876565b9150600181019050614e0c565b50849250505092915050565b6000614e4e82615809565b614e5881856158ee565b9350614e63836157a0565b60005b82811015614e9157614e79868351614b98565b9550614e8482615883565b9150600181019050614e66565b50849250505092915050565b6000614ea882615814565b614eb281856158ff565b935083602082028501614ec4856157ad565b60005b84811015614efd578383038852614edf838351614bb0565b9250614eea82615890565b9150602088019750600181019050614ec7565b508196508694505050505092915050565b6000614f198261581f565b614f238185615910565b9350614f2e836157ba565b60005b82811015614f5c57614f44868351614bc4565b9550614f4f8261589d565b9150600181019050614f31565b50849250505092915050565b614f7181615956565b82525050565b614f8081615956565b82525050565b6000614f918261582a565b614f9b8185615921565b9350614fab818560208601615a2b565b614fb481615a5e565b840191505092915050565b6000610120830160008301518482036000860152614fdd8282614d8f565b91505060208301518482036020860152614ff78282614c81565b915050604083015161500c6040860182615118565b50606083015161501f6060860182614c09565b5060808301516150326080860182615118565b5060a083015161504560a0860182615118565b5060c083015161505860c0860182614f68565b5060e083015184820360e08601526150708282614e9d565b91505061010083015184820361010086015261508c8282614e43565b9150508091505092915050565b6060820160008201516150af6000850182614beb565b5060208201516150c26020850182615118565b5060408201516150d56040850182614f68565b50505050565b600060408301600083015184820360008601526150f88282614d8f565b915050602083015161510d6020860182614c09565b508091505092915050565b61512181615982565b82525050565b61513081615982565b82525050565b600060208201905061514b6000830184614c18565b92915050565b60006060820190506151666000830186614bdc565b6151736020830185614c18565b6151806040830184615127565b949350505050565b600060408201905061519d6000830185614bdc565b6151aa6020830184615127565b9392505050565b60006060820190506151c66000830186614c18565b6151d36020830185614bdc565b6151e06040830184615127565b949350505050565b60006020820190506151fd6000830184614f77565b92915050565b6000602082019050818103600083015261521d8184614fbf565b905092915050565b600060208201905061523a6000830184615127565b92915050565b600061010082019050615256600083018b615127565b615263602083018a614bfa565b81810360408301526152758189614d35565b905081810360608301526152898188614c27565b9050818103608083015261529d8187614f86565b90506152ac60a0830186615127565b6152b960c0830185614c18565b6152c660e0830184615127565b9998505050505050505050565b60006060820190506152e86000830186615127565b6152f56020830185614bdc565b81810360408301526153078184614f0e565b9050949350505050565b60006060820190506153266000830186615127565b6153336020830185614c18565b81810360408301526153458184614cdb565b9050949350505050565b600060c0820190506153646000830189615127565b6153716020830188614c18565b81810360408301526153838187614d35565b905081810360608301526153978186614d35565b905081810360808301526153ab8185614f86565b90506153ba60a0830184615127565b979650505050505050565b60006060820190506153da6000830186615127565b6153e76020830185614c18565b81810360408301526153f98184614de9565b9050949350505050565b60006060820190506154186000830186615127565b6154256020830185614c18565b81810360408301526154378184614f0e565b9050949350505050565b60006060820190506154566000830186615127565b6154636020830185614c18565b81810360408301526154758184614f86565b9050949350505050565b60006060820190506154946000830186615127565b6154a16020830185614c18565b6154ae6040830184615127565b949350505050565b600060a0820190506154cb6000830188615127565b6154d86020830187614c18565b6154e56040830186615127565b6154f26060830185615127565b6154ff6080830184614f77565b9695505050505050565b600060408201905061551e6000830185615127565b61552b6020830184615127565b9392505050565b60006080820190506155476000830187615127565b6155546020830186615127565b6155616040830185614bfa565b61556e6060830184615127565b95945050505050565b600060808201905061558c6000830187615127565b6155996020830186615127565b6155a66040830185614c18565b81810360608301526155b88184614f0e565b905095945050505050565b60006080820190506155d86000830187615127565b6155e56020830186615127565b81810360408301526155f78185614d35565b9050818103606083015261560b8184614f86565b905095945050505050565b600060a08201905061562b6000830188615127565b6156386020830187615127565b818103604083015261564a8186614d35565b9050818103606083015261565e8185614f86565b905061566d6080830184614c18565b9695505050505050565b6000604051905081810181811067ffffffffffffffff8211171561569a57600080fd5b8060405250919050565b600067ffffffffffffffff8211156156bb57600080fd5b602082029050602081019050919050565b600067ffffffffffffffff8211156156e357600080fd5b602082029050602081019050919050565b600067ffffffffffffffff82111561570b57600080fd5b602082029050602081019050919050565b600067ffffffffffffffff82111561573357600080fd5b601f19601f8301169050602081019050919050565b6000602082019050919050565b6000602082019050919050565b60008160005260206000209050919050565b6000602082019050919050565b6000602082019050919050565b60008160005260206000209050919050565b6000602082019050919050565b6000602082019050919050565b6000602082019050919050565b600081519050919050565b600081519050919050565b600081549050919050565b600081519050919050565b600081519050919050565b600081549050919050565b600081519050919050565b600081519050919050565b600081519050919050565b600081519050919050565b6000602082019050919050565b6000602082019050919050565b6000600182019050919050565b6000602082019050919050565b6000602082019050919050565b6000600182019050919050565b6000602082019050919050565b6000602082019050919050565b6000602082019050919050565b600082825260208201905092915050565b600082825260208201905092915050565b600082825260208201905092915050565b600082825260208201905092915050565b600082825260208201905092915050565b600082825260208201905092915050565b600082825260208201905092915050565b600082825260208201905092915050565b600061593d82615962565b9050919050565b600061594f82615962565b9050919050565b60008115159050919050565b600073ffffffffffffffffffffffffffffffffffffffff82169050919050565b6000819050919050565b6000615997826159bc565b9050919050565b60006159a9826159bc565b9050919050565b60008115159050919050565b600073ffffffffffffffffffffffffffffffffffffffff82169050919050565b6000819050919050565b60006159f1826159f8565b9050919050565b6000615a0382615a0a565b9050919050565b6000615a1582615962565b9050919050565b82818337600083830152505050565b60005b83811015615a49578082015181840152602081019050615a2e565b83811115615a58576000848401525b50505050565b6000601f19601f830116905091905056fea265627a7a72305820ea13324da14ecf8e32882ecf276feba512962a6ef9a8ab2483f4dd22eb7027066c6578706572696d656e74616cf50037",
  "source": "pragma solidity 0.5.6;\npragma experimental ABIEncoderV2;\n\nimport \"./inherited/ERC20Token.sol\";\nimport \"./inherited/ERC721Basic.sol\";\n\n\n/// @title StandardBounties\n/// @dev A contract for issuing bounties on Ethereum paying in ETH, ERC20, or ERC721 tokens\n/// @author Mark Beylin <mark.beylin@consensys.net>, Gonalo S <goncalo.sa@consensys.net>, Kevin Owocki <kevin.owocki@consensys.net>, Ricardo Guilherme Schmidt (@3esmit), Matt Garnett <matt.garnett@consensys.net>, Craig Williams <craig.williams@consensys.net>\ncontract StandardBounties {\n\n  using SafeMath for uint256;\n\n  /*\n   * Structs\n   */\n\n  struct Bounty {\n    address payable[] issuers; // An array of individuals who have complete control over the bounty, and can edit any of its parameters\n    address[] approvers; // An array of individuals who are allowed to accept the fulfillments for a particular bounty\n    uint deadline; // The Unix timestamp before which all submissions must be made, and after which refunds may be processed\n    address token; // The address of the token associated with the bounty (should be disregarded if the tokenVersion is 0)\n    uint tokenVersion; // The version of the token being used for the bounty (0 for ETH, 20 for ERC20, 721 for ERC721)\n    uint balance; // The number of tokens which the bounty is able to pay out or refund\n    bool hasPaidOut; // A boolean storing whether or not the bounty has paid out at least once, meaning refunds are no longer allowed\n    Fulfillment[] fulfillments; // An array of Fulfillments which store the various submissions which have been made to the bounty\n    Contribution[] contributions; // An array of Contributions which store the contributions which have been made to the bounty\n  }\n\n  struct Fulfillment {\n    address payable[] fulfillers; // An array of addresses who should receive payouts for a given submission\n    address submitter; // The address of the individual who submitted the fulfillment, who is able to update the submission as needed\n  }\n\n  struct Contribution {\n    address payable contributor; // The address of the individual who contributed\n    uint amount; // The amount of tokens the user contributed\n    bool refunded; // A boolean storing whether or not the contribution has been refunded yet\n  }\n\n  /*\n   * Storage\n   */\n\n  uint public numBounties; // An integer storing the total number of bounties in the contract\n  mapping(uint => Bounty) public bounties; // A mapping of bountyIDs to bounties\n  mapping (uint => mapping (uint => bool)) public tokenBalances; // A mapping of bountyIds to tokenIds to booleans, storing whether a given bounty has a given ERC721 token in its balance\n\n\n  address public owner; // The address of the individual who's allowed to set the metaTxRelayer address\n  address public metaTxRelayer; // The address of the meta transaction relayer whose _sender is automatically trusted for all contract calls\n\n  bool public callStarted; // Ensures mutex for the entire contract\n\n  /*\n   * Modifiers\n   */\n\n  modifier callNotStarted(){\n    require(!callStarted);\n    callStarted = true;\n    _;\n    callStarted = false;\n  }\n\n  modifier validateBountyArrayIndex(\n    uint _index)\n  {\n    require(_index < numBounties);\n    _;\n  }\n\n  modifier validateContributionArrayIndex(\n    uint _bountyId,\n    uint _index)\n  {\n    require(_index < bounties[_bountyId].contributions.length);\n    _;\n  }\n\n  modifier validateFulfillmentArrayIndex(\n    uint _bountyId,\n    uint _index)\n  {\n    require(_index < bounties[_bountyId].fulfillments.length);\n    _;\n  }\n\n  modifier validateIssuerArrayIndex(\n    uint _bountyId,\n    uint _index)\n  {\n    require(_index < bounties[_bountyId].issuers.length);\n    _;\n  }\n\n  modifier validateApproverArrayIndex(\n    uint _bountyId,\n    uint _index)\n  {\n    require(_index < bounties[_bountyId].approvers.length);\n    _;\n  }\n\n  modifier onlyIssuer(\n  address _sender,\n  uint _bountyId,\n  uint _issuerId)\n  {\n  require(_sender == bounties[_bountyId].issuers[_issuerId]);\n  _;\n  }\n\n  modifier onlySubmitter(\n    address _sender,\n    uint _bountyId,\n    uint _fulfillmentId)\n  {\n    require(_sender ==\n            bounties[_bountyId].fulfillments[_fulfillmentId].submitter);\n    _;\n  }\n\n  modifier onlyContributor(\n  address _sender,\n  uint _bountyId,\n  uint _contributionId)\n  {\n    require(_sender ==\n            bounties[_bountyId].contributions[_contributionId].contributor);\n    _;\n  }\n\n  modifier isApprover(\n    address _sender,\n    uint _bountyId,\n    uint _approverId)\n  {\n    require(_sender == bounties[_bountyId].approvers[_approverId]);\n    _;\n  }\n\n  modifier hasNotPaid(\n    uint _bountyId)\n  {\n    require(!bounties[_bountyId].hasPaidOut);\n    _;\n  }\n\n  modifier hasNotRefunded(\n    uint _bountyId,\n    uint _contributionId)\n  {\n    require(!bounties[_bountyId].contributions[_contributionId].refunded);\n    _;\n  }\n\n  modifier senderIsValid(\n    address _sender)\n  {\n    require(msg.sender == _sender || msg.sender == metaTxRelayer);\n    _;\n  }\n\n /*\n  * Public functions\n  */\n\n  constructor() public {\n    // The owner of the contract is automatically designated to be the deployer of the contract\n    owner = msg.sender;\n  }\n\n  /// @dev setMetaTxRelayer(): Sets the address of the meta transaction relayer\n  /// @param _relayer the address of the relayer\n  function setMetaTxRelayer(address _relayer)\n    external\n  {\n    require(msg.sender == owner); // Checks that only the owner can call\n    require(metaTxRelayer == address(0)); // Ensures the meta tx relayer can only be set once\n    metaTxRelayer = _relayer;\n  }\n\n  /// @dev issueBounty(): creates a new bounty\n  /// @param _sender the sender of the transaction issuing the bounty (should be the same as msg.sender unless the txn is called by the meta tx relayer)\n  /// @param _issuers the array of addresses who will be the issuers of the bounty\n  /// @param _approvers the array of addresses who will be the approvers of the bounty\n  /// @param _data the IPFS hash representing the JSON object storing the details of the bounty (see docs for schema details)\n  /// @param _deadline the timestamp which will become the deadline of the bounty\n  /// @param _token the address of the token which will be used for the bounty\n  /// @param _tokenVersion the version of the token being used for the bounty (0 for ETH, 20 for ERC20, 721 for ERC721)\n  function issueBounty(\n    address payable _sender,\n    address payable[] memory _issuers,\n    address[] memory _approvers,\n    string memory _data,\n    uint _deadline,\n    address _token,\n    uint _tokenVersion)\n    public\n    senderIsValid(_sender)\n    returns (uint)\n  {\n    require(_tokenVersion == 0 || _tokenVersion == 20 || _tokenVersion == 721); // Ensures a bounty can only be issued with a valid token version\n    require(_issuers.length > 0 || _approvers.length > 0); // Ensures there's at least 1 issuer or approver, so funds don't get stuck\n\n    uint bountyId = numBounties; // The next bounty's index will always equal the number of existing bounties\n\n    Bounty storage newBounty = bounties[bountyId];\n    newBounty.issuers = _issuers;\n    newBounty.approvers = _approvers;\n    newBounty.deadline = _deadline;\n    newBounty.tokenVersion = _tokenVersion;\n\n    if (_tokenVersion != 0){\n      newBounty.token = _token;\n    }\n\n    numBounties = numBounties.add(1); // Increments the number of bounties, since a new one has just been added\n\n    emit BountyIssued(bountyId,\n                      _sender,\n                      _issuers,\n                      _approvers,\n                      _data, // Instead of storing the string on-chain, it is emitted within the event for easy off-chain consumption\n                      _deadline,\n                      _token,\n                      _tokenVersion);\n\n    return (bountyId);\n  }\n\n  /// @param _depositAmount the amount of tokens being deposited to the bounty, which will create a new contribution to the bounty\n\n\n  function issueAndContribute(\n    address payable _sender,\n    address payable[] memory _issuers,\n    address[] memory _approvers,\n    string memory _data,\n    uint _deadline,\n    address _token,\n    uint _tokenVersion,\n    uint _depositAmount)\n    public\n    payable\n    returns(uint)\n  {\n    uint bountyId = issueBounty(_sender, _issuers, _approvers, _data, _deadline, _token, _tokenVersion);\n\n    contribute(_sender, bountyId, _depositAmount);\n\n    return (bountyId);\n  }\n\n\n  /// @dev contribute(): Allows users to contribute tokens to a given bounty.\n  ///                    Contributing merits no privelages to administer the\n  ///                    funds in the bounty or accept submissions. Contributions\n  ///                    are refundable but only on the condition that the deadline\n  ///                    has elapsed, and the bounty has not yet paid out any funds.\n  ///                    All funds deposited in a bounty are at the mercy of a\n  ///                    bounty's issuers and approvers, so please be careful!\n  /// @param _sender the sender of the transaction issuing the bounty (should be the same as msg.sender unless the txn is called by the meta tx relayer)\n  /// @param _bountyId the index of the bounty\n  /// @param _amount the amount of tokens being contributed\n  function contribute(\n    address payable _sender,\n    uint _bountyId,\n    uint _amount)\n    public\n    payable\n    senderIsValid(_sender)\n    validateBountyArrayIndex(_bountyId)\n    callNotStarted\n  {\n    require(_amount > 0); // Contributions of 0 tokens or token ID 0 should fail\n\n    bounties[_bountyId].contributions.push(\n      Contribution(_sender, _amount, false)); // Adds the contribution to the bounty\n\n    if (bounties[_bountyId].tokenVersion == 0){\n\n      bounties[_bountyId].balance = bounties[_bountyId].balance.add(_amount); // Increments the balance of the bounty\n\n      require(msg.value == _amount);\n    } else if (bounties[_bountyId].tokenVersion == 20){\n\n      bounties[_bountyId].balance = bounties[_bountyId].balance.add(_amount); // Increments the balance of the bounty\n\n      require(msg.value == 0); // Ensures users don't accidentally send ETH alongside a token contribution, locking up funds\n      require(ERC20Token(bounties[_bountyId].token).transferFrom(_sender,\n                                                                 address(this),\n                                                                 _amount));\n    } else if (bounties[_bountyId].tokenVersion == 721){\n      tokenBalances[_bountyId][_amount] = true; // Adds the 721 token to the balance of the bounty\n\n\n      require(msg.value == 0); // Ensures users don't accidentally send ETH alongside a token contribution, locking up funds\n      ERC721BasicToken(bounties[_bountyId].token).transferFrom(_sender,\n                                                               address(this),\n                                                               _amount);\n    } else {\n      revert();\n    }\n\n    emit ContributionAdded(_bountyId,\n                           bounties[_bountyId].contributions.length - 1, // The new contributionId\n                           _sender,\n                           _amount);\n  }\n\n  /// @dev refundContribution(): Allows users to refund the contributions they've\n  ///                            made to a particular bounty, but only if the bounty\n  ///                            has not yet paid out, and the deadline has elapsed.\n  /// @param _sender the sender of the transaction issuing the bounty (should be the same as msg.sender unless the txn is called by the meta tx relayer)\n  /// @param _bountyId the index of the bounty\n  /// @param _contributionId the index of the contribution being refunded\n  function refundContribution(\n    address _sender,\n    uint _bountyId,\n    uint _contributionId)\n    public\n    senderIsValid(_sender)\n    validateBountyArrayIndex(_bountyId)\n    validateContributionArrayIndex(_bountyId, _contributionId)\n    onlyContributor(_sender, _bountyId, _contributionId)\n    hasNotPaid(_bountyId)\n    hasNotRefunded(_bountyId, _contributionId)\n    callNotStarted\n  {\n    require(now > bounties[_bountyId].deadline); // Refunds may only be processed after the deadline has elapsed\n\n    Contribution storage contribution = bounties[_bountyId].contributions[_contributionId];\n\n    contribution.refunded = true;\n\n    transferTokens(_bountyId, contribution.contributor, contribution.amount); // Performs the disbursal of tokens to the contributor\n\n    emit ContributionRefunded(_bountyId, _contributionId);\n  }\n\n  /// @dev refundMyContributions(): Allows users to refund their contributions in bulk\n  /// @param _sender the sender of the transaction issuing the bounty (should be the same as msg.sender unless the txn is called by the meta tx relayer)\n  /// @param _bountyId the index of the bounty\n  /// @param _contributionIds the array of indexes of the contributions being refunded\n  function refundMyContributions(\n    address _sender,\n    uint _bountyId,\n    uint[] memory _contributionIds)\n    public\n    senderIsValid(_sender)\n  {\n    for (uint i = 0; i < _contributionIds.length; i++){\n        refundContribution(_sender, _bountyId, _contributionIds[i]);\n    }\n  }\n\n  /// @dev refundContributions(): Allows users to refund their contributions in bulk\n  /// @param _sender the sender of the transaction issuing the bounty (should be the same as msg.sender unless the txn is called by the meta tx relayer)\n  /// @param _bountyId the index of the bounty\n  /// @param _issuerId the index of the issuer who is making the call\n  /// @param _contributionIds the array of indexes of the contributions being refunded\n  function refundContributions(\n    address _sender,\n    uint _bountyId,\n    uint _issuerId,\n    uint[] memory _contributionIds)\n    public\n    senderIsValid(_sender)\n    validateBountyArrayIndex(_bountyId)\n    onlyIssuer(_sender, _bountyId, _issuerId)\n    callNotStarted\n  {\n    for (uint i = 0; i < _contributionIds.length; i++){\n      require(_contributionIds[i] < bounties[_bountyId].contributions.length);\n\n      Contribution storage contribution = bounties[_bountyId].contributions[_contributionIds[i]];\n\n      require(!contribution.refunded);\n\n      contribution.refunded = true;\n\n      transferTokens(_bountyId, contribution.contributor, contribution.amount); // Performs the disbursal of tokens to the contributor\n    }\n\n    emit ContributionsRefunded(_bountyId, _sender, _contributionIds);\n  }\n\n  /// @dev drainBounty(): Allows an issuer to drain the funds from the bounty\n  /// @notice when using this function, if an issuer doesn't drain the entire balance, some users may be able to refund their contributions, while others may not (which is unfair to them). Please use it wisely, only when necessary\n  /// @param _sender the sender of the transaction issuing the bounty (should be the same as msg.sender unless the txn is called by the meta tx relayer)\n  /// @param _bountyId the index of the bounty\n  /// @param _issuerId the index of the issuer who is making the call\n  /// @param _amounts an array of amounts of tokens to be sent. The length of the array should be 1 if the bounty is in ETH or ERC20 tokens. If it's an ERC721 bounty, the array should be the list of tokenIDs.\n  function drainBounty(\n    address payable _sender,\n    uint _bountyId,\n    uint _issuerId,\n    uint[] memory _amounts)\n    public\n    senderIsValid(_sender)\n    validateBountyArrayIndex(_bountyId)\n    onlyIssuer(_sender, _bountyId, _issuerId)\n    callNotStarted\n  {\n    if (bounties[_bountyId].tokenVersion == 0 || bounties[_bountyId].tokenVersion == 20){\n      require(_amounts.length == 1); // ensures there's only 1 amount of tokens to be returned\n      require(_amounts[0] <= bounties[_bountyId].balance); // ensures an issuer doesn't try to drain the bounty of more tokens than their balance permits\n      transferTokens(_bountyId, _sender, _amounts[0]); // Performs the draining of tokens to the issuer\n    } else {\n      for (uint i = 0; i < _amounts.length; i++){\n        require(tokenBalances[_bountyId][_amounts[i]]);// ensures an issuer doesn't try to drain the bounty of a token it doesn't have in its balance\n        transferTokens(_bountyId, _sender, _amounts[i]);\n      }\n    }\n\n    emit BountyDrained(_bountyId, _sender, _amounts);\n  }\n\n  /// @dev performAction(): Allows users to perform any generalized action\n  ///                       associated with a particular bounty, such as applying for it\n  /// @param _sender the sender of the transaction issuing the bounty (should be the same as msg.sender unless the txn is called by the meta tx relayer)\n  /// @param _bountyId the index of the bounty\n  /// @param _data the IPFS hash corresponding to a JSON object which contains the details of the action being performed (see docs for schema details)\n  function performAction(\n    address _sender,\n    uint _bountyId,\n    string memory _data)\n    public\n    senderIsValid(_sender)\n    validateBountyArrayIndex(_bountyId)\n  {\n    emit ActionPerformed(_bountyId, _sender, _data); // The _data string is emitted in an event for easy off-chain consumption\n  }\n\n  /// @dev fulfillBounty(): Allows users to fulfill the bounty to get paid out\n  /// @param _sender the sender of the transaction issuing the bounty (should be the same as msg.sender unless the txn is called by the meta tx relayer)\n  /// @param _bountyId the index of the bounty\n  /// @param _fulfillers the array of addresses which will receive payouts for the submission\n  /// @param _data the IPFS hash corresponding to a JSON object which contains the details of the submission (see docs for schema details)\n  function fulfillBounty(\n    address _sender,\n    uint _bountyId,\n    address payable[] memory  _fulfillers,\n    string memory _data)\n    public\n    senderIsValid(_sender)\n    validateBountyArrayIndex(_bountyId)\n  {\n    require(now < bounties[_bountyId].deadline); // Submissions are only allowed to be made before the deadline\n    require(_fulfillers.length > 0); // Submissions with no fulfillers would mean no one gets paid out\n\n    bounties[_bountyId].fulfillments.push(Fulfillment(_fulfillers, _sender));\n\n    emit BountyFulfilled(_bountyId,\n                         (bounties[_bountyId].fulfillments.length - 1),\n                         _fulfillers,\n                         _data, // The _data string is emitted in an event for easy off-chain consumption\n                         _sender);\n  }\n\n  /// @dev updateFulfillment(): Allows the submitter of a fulfillment to update their submission\n  /// @param _sender the sender of the transaction issuing the bounty (should be the same as msg.sender unless the txn is called by the meta tx relayer)\n  /// @param _bountyId the index of the bounty\n  /// @param _fulfillmentId the index of the fulfillment\n  /// @param _fulfillers the new array of addresses which will receive payouts for the submission\n  /// @param _data the new IPFS hash corresponding to a JSON object which contains the details of the submission (see docs for schema details)\n  function updateFulfillment(\n  address _sender,\n  uint _bountyId,\n  uint _fulfillmentId,\n  address payable[] memory _fulfillers,\n  string memory _data)\n  public\n  senderIsValid(_sender)\n  validateBountyArrayIndex(_bountyId)\n  validateFulfillmentArrayIndex(_bountyId, _fulfillmentId)\n  onlySubmitter(_sender, _bountyId, _fulfillmentId) // Only the original submitter of a fulfillment may update their submission\n  {\n    bounties[_bountyId].fulfillments[_fulfillmentId].fulfillers = _fulfillers;\n    emit FulfillmentUpdated(_bountyId,\n                            _fulfillmentId,\n                            _fulfillers,\n                            _data); // The _data string is emitted in an event for easy off-chain consumption\n  }\n\n  /// @dev acceptFulfillment(): Allows any of the approvers to accept a given submission\n  /// @param _sender the sender of the transaction issuing the bounty (should be the same as msg.sender unless the txn is called by the meta tx relayer)\n  /// @param _bountyId the index of the bounty\n  /// @param _fulfillmentId the index of the fulfillment to be accepted\n  /// @param _approverId the index of the approver which is making the call\n  /// @param _tokenAmounts the array of token amounts which will be paid to the\n  ///                      fulfillers, whose length should equal the length of the\n  ///                      _fulfillers array of the submission. If the bounty pays\n  ///                      in ERC721 tokens, then these should be the token IDs\n  ///                      being sent to each of the individual fulfillers\n  function acceptFulfillment(\n    address _sender,\n    uint _bountyId,\n    uint _fulfillmentId,\n    uint _approverId,\n    uint[] memory _tokenAmounts)\n    public\n    senderIsValid(_sender)\n    validateBountyArrayIndex(_bountyId)\n    validateFulfillmentArrayIndex(_bountyId, _fulfillmentId)\n    isApprover(_sender, _bountyId, _approverId)\n    callNotStarted\n  {\n    // now that the bounty has paid out at least once, refunds are no longer possible\n    bounties[_bountyId].hasPaidOut = true;\n\n    Fulfillment storage fulfillment = bounties[_bountyId].fulfillments[_fulfillmentId];\n\n    require(_tokenAmounts.length == fulfillment.fulfillers.length); // Each fulfiller should get paid some amount of tokens (this can be 0)\n\n    for (uint256 i = 0; i < fulfillment.fulfillers.length; i++){\n        if (_tokenAmounts[i] > 0){\n          // for each fulfiller associated with the submission\n          transferTokens(_bountyId, fulfillment.fulfillers[i], _tokenAmounts[i]);\n        }\n    }\n    emit FulfillmentAccepted(_bountyId,\n                             _fulfillmentId,\n                             _sender,\n                             _tokenAmounts);\n  }\n\n  /// @dev fulfillAndAccept(): Allows any of the approvers to fulfill and accept a submission simultaneously\n  /// @param _sender the sender of the transaction issuing the bounty (should be the same as msg.sender unless the txn is called by the meta tx relayer)\n  /// @param _bountyId the index of the bounty\n  /// @param _fulfillers the array of addresses which will receive payouts for the submission\n  /// @param _data the IPFS hash corresponding to a JSON object which contains the details of the submission (see docs for schema details)\n  /// @param _approverId the index of the approver which is making the call\n  /// @param _tokenAmounts the array of token amounts which will be paid to the\n  ///                      fulfillers, whose length should equal the length of the\n  ///                      _fulfillers array of the submission. If the bounty pays\n  ///                      in ERC721 tokens, then these should be the token IDs\n  ///                      being sent to each of the individual fulfillers\n  function fulfillAndAccept(\n    address _sender,\n    uint _bountyId,\n    address payable[] memory _fulfillers,\n    string memory _data,\n    uint _approverId,\n    uint[] memory _tokenAmounts)\n    public\n    senderIsValid(_sender)\n  {\n    // first fulfills the bounty on behalf of the fulfillers\n    fulfillBounty(_sender, _bountyId, _fulfillers, _data);\n\n    // then accepts the fulfillment\n    acceptFulfillment(_sender,\n                      _bountyId,\n                      bounties[_bountyId].fulfillments.length - 1,\n                      _approverId,\n                      _tokenAmounts);\n  }\n\n\n\n  /// @dev changeBounty(): Allows any of the issuers to change the bounty\n  /// @param _sender the sender of the transaction issuing the bounty (should be the same as msg.sender unless the txn is called by the meta tx relayer)\n  /// @param _bountyId the index of the bounty\n  /// @param _issuerId the index of the issuer who is calling the function\n  /// @param _issuers the new array of addresses who will be the issuers of the bounty\n  /// @param _approvers the new array of addresses who will be the approvers of the bounty\n  /// @param _data the new IPFS hash representing the JSON object storing the details of the bounty (see docs for schema details)\n  /// @param _deadline the new timestamp which will become the deadline of the bounty\n  function changeBounty(\n    address _sender,\n    uint _bountyId,\n    uint _issuerId,\n    address payable[] memory _issuers,\n    address payable[] memory _approvers,\n    string memory _data,\n    uint _deadline)\n    public\n    senderIsValid(_sender)\n  {\n    require(_bountyId < numBounties); // makes the validateBountyArrayIndex modifier in-line to avoid stack too deep errors\n    require(_issuerId < bounties[_bountyId].issuers.length); // makes the validateIssuerArrayIndex modifier in-line to avoid stack too deep errors\n    require(_sender == bounties[_bountyId].issuers[_issuerId]); // makes the onlyIssuer modifier in-line to avoid stack too deep errors\n\n    require(_issuers.length > 0 || _approvers.length > 0); // Ensures there's at least 1 issuer or approver, so funds don't get stuck\n\n    bounties[_bountyId].issuers = _issuers;\n    bounties[_bountyId].approvers = _approvers;\n    bounties[_bountyId].deadline = _deadline;\n    emit BountyChanged(_bountyId,\n                       _sender,\n                       _issuers,\n                       _approvers,\n                       _data,\n                       _deadline);\n  }\n\n  /// @dev changeIssuer(): Allows any of the issuers to change a particular issuer of the bounty\n  /// @param _sender the sender of the transaction issuing the bounty (should be the same as msg.sender unless the txn is called by the meta tx relayer)\n  /// @param _bountyId the index of the bounty\n  /// @param _issuerId the index of the issuer who is calling the function\n  /// @param _issuerIdToChange the index of the issuer who is being changed\n  /// @param _newIssuer the address of the new issuer\n  function changeIssuer(\n    address _sender,\n    uint _bountyId,\n    uint _issuerId,\n    uint _issuerIdToChange,\n    address payable _newIssuer)\n    public\n    senderIsValid(_sender)\n    validateBountyArrayIndex(_bountyId)\n    validateIssuerArrayIndex(_bountyId, _issuerIdToChange)\n    onlyIssuer(_sender, _bountyId, _issuerId)\n  {\n    require(_issuerId < bounties[_bountyId].issuers.length || _issuerId == 0);\n\n    bounties[_bountyId].issuers[_issuerIdToChange] = _newIssuer;\n\n    emit BountyIssuersUpdated(_bountyId, _sender, bounties[_bountyId].issuers);\n  }\n\n  /// @dev changeApprover(): Allows any of the issuers to change a particular approver of the bounty\n  /// @param _sender the sender of the transaction issuing the bounty (should be the same as msg.sender unless the txn is called by the meta tx relayer)\n  /// @param _bountyId the index of the bounty\n  /// @param _issuerId the index of the issuer who is calling the function\n  /// @param _approverId the index of the approver who is being changed\n  /// @param _approver the address of the new approver\n  function changeApprover(\n    address _sender,\n    uint _bountyId,\n    uint _issuerId,\n    uint _approverId,\n    address payable _approver)\n    external\n    senderIsValid(_sender)\n    validateBountyArrayIndex(_bountyId)\n    onlyIssuer(_sender, _bountyId, _issuerId)\n    validateApproverArrayIndex(_bountyId, _approverId)\n  {\n    bounties[_bountyId].approvers[_approverId] = _approver;\n\n    emit BountyApproversUpdated(_bountyId, _sender, bounties[_bountyId].approvers);\n  }\n\n  /// @dev changeIssuerAndApprover(): Allows any of the issuers to change a particular approver of the bounty\n  /// @param _sender the sender of the transaction issuing the bounty (should be the same as msg.sender unless the txn is called by the meta tx relayer)\n  /// @param _bountyId the index of the bounty\n  /// @param _issuerId the index of the issuer who is calling the function\n  /// @param _issuerIdToChange the index of the issuer who is being changed\n  /// @param _approverIdToChange the index of the approver who is being changed\n  /// @param _issuer the address of the new approver\n  function changeIssuerAndApprover(\n    address _sender,\n    uint _bountyId,\n    uint _issuerId,\n    uint _issuerIdToChange,\n    uint _approverIdToChange,\n    address payable _issuer)\n    external\n    senderIsValid(_sender)\n    onlyIssuer(_sender, _bountyId, _issuerId)\n  {\n    require(_bountyId < numBounties);\n    require(_approverIdToChange < bounties[_bountyId].approvers.length);\n    require(_issuerIdToChange < bounties[_bountyId].issuers.length);\n\n    bounties[_bountyId].issuers[_issuerIdToChange] = _issuer;\n    bounties[_bountyId].approvers[_approverIdToChange] = _issuer;\n\n    emit BountyIssuersUpdated(_bountyId, _sender, bounties[_bountyId].issuers);\n    emit BountyApproversUpdated(_bountyId, _sender, bounties[_bountyId].approvers);\n  }\n\n  /// @dev changeData(): Allows any of the issuers to change the data the bounty\n  /// @param _sender the sender of the transaction issuing the bounty (should be the same as msg.sender unless the txn is called by the meta tx relayer)\n  /// @param _bountyId the index of the bounty\n  /// @param _issuerId the index of the issuer who is calling the function\n  /// @param _data the new IPFS hash representing the JSON object storing the details of the bounty (see docs for schema details)\n  function changeData(\n    address _sender,\n    uint _bountyId,\n    uint _issuerId,\n    string memory _data)\n    public\n    senderIsValid(_sender)\n    validateBountyArrayIndex(_bountyId)\n    validateIssuerArrayIndex(_bountyId, _issuerId)\n    onlyIssuer(_sender, _bountyId, _issuerId)\n  {\n    emit BountyDataChanged(_bountyId, _sender, _data); // The new _data is emitted within an event rather than being stored on-chain for minimized gas costs\n  }\n\n  /// @dev changeDeadline(): Allows any of the issuers to change the deadline the bounty\n  /// @param _sender the sender of the transaction issuing the bounty (should be the same as msg.sender unless the txn is called by the meta tx relayer)\n  /// @param _bountyId the index of the bounty\n  /// @param _issuerId the index of the issuer who is calling the function\n  /// @param _deadline the new timestamp which will become the deadline of the bounty\n  function changeDeadline(\n    address _sender,\n    uint _bountyId,\n    uint _issuerId,\n    uint _deadline)\n    external\n    senderIsValid(_sender)\n    validateBountyArrayIndex(_bountyId)\n    validateIssuerArrayIndex(_bountyId, _issuerId)\n    onlyIssuer(_sender, _bountyId, _issuerId)\n  {\n    bounties[_bountyId].deadline = _deadline;\n\n    emit BountyDeadlineChanged(_bountyId, _sender, _deadline);\n  }\n\n  /// @dev addIssuers(): Allows any of the issuers to add more issuers to the bounty\n  /// @param _sender the sender of the transaction issuing the bounty (should be the same as msg.sender unless the txn is called by the meta tx relayer)\n  /// @param _bountyId the index of the bounty\n  /// @param _issuerId the index of the issuer who is calling the function\n  /// @param _issuers the array of addresses to add to the list of valid issuers\n  function addIssuers(\n    address _sender,\n    uint _bountyId,\n    uint _issuerId,\n    address payable[] memory _issuers)\n    public\n    senderIsValid(_sender)\n    validateBountyArrayIndex(_bountyId)\n    validateIssuerArrayIndex(_bountyId, _issuerId)\n    onlyIssuer(_sender, _bountyId, _issuerId)\n  {\n    for (uint i = 0; i < _issuers.length; i++){\n      bounties[_bountyId].issuers.push(_issuers[i]);\n    }\n\n    emit BountyIssuersUpdated(_bountyId, _sender, bounties[_bountyId].issuers);\n  }\n\n  /// @dev addApprovers(): Allows any of the issuers to add more approvers to the bounty\n  /// @param _sender the sender of the transaction issuing the bounty (should be the same as msg.sender unless the txn is called by the meta tx relayer)\n  /// @param _bountyId the index of the bounty\n  /// @param _issuerId the index of the issuer who is calling the function\n  /// @param _approvers the array of addresses to add to the list of valid approvers\n  function addApprovers(\n    address _sender,\n    uint _bountyId,\n    uint _issuerId,\n    address[] memory _approvers)\n    public\n    senderIsValid(_sender)\n    validateBountyArrayIndex(_bountyId)\n    validateIssuerArrayIndex(_bountyId, _issuerId)\n    onlyIssuer(_sender, _bountyId, _issuerId)\n  {\n    for (uint i = 0; i < _approvers.length; i++){\n      bounties[_bountyId].approvers.push(_approvers[i]);\n    }\n\n    emit BountyApproversUpdated(_bountyId, _sender, bounties[_bountyId].approvers);\n  }\n\n  /// @dev getBounty(): Returns the details of the bounty\n  /// @param _bountyId the index of the bounty\n  /// @return Returns a tuple for the bounty\n  function getBounty(uint _bountyId)\n    external\n    view\n    returns (Bounty memory)\n  {\n    return bounties[_bountyId];\n  }\n\n\n  function transferTokens(uint _bountyId, address payable _to, uint _amount)\n    internal\n  {\n    if (bounties[_bountyId].tokenVersion == 0){\n      require(_amount > 0); // Sending 0 tokens should throw\n      require(bounties[_bountyId].balance >= _amount);\n\n      bounties[_bountyId].balance = bounties[_bountyId].balance.sub(_amount);\n\n      _to.transfer(_amount);\n    } else if (bounties[_bountyId].tokenVersion == 20){\n      require(_amount > 0); // Sending 0 tokens should throw\n      require(bounties[_bountyId].balance >= _amount);\n\n      bounties[_bountyId].balance = bounties[_bountyId].balance.sub(_amount);\n\n      require(ERC20Token(bounties[_bountyId].token).transfer(_to, _amount));\n    } else if (bounties[_bountyId].tokenVersion == 721){\n      require(tokenBalances[_bountyId][_amount]);\n\n      tokenBalances[_bountyId][_amount] = false; // Removes the 721 token from the balance of the bounty\n\n      ERC721BasicToken(bounties[_bountyId].token).transferFrom(address(this),\n                                                               _to,\n                                                               _amount);\n    } else {\n      revert();\n    }\n  }\n\n  /*\n   * Events\n   */\n\n  event BountyIssued(uint _bountyId, address payable _creator, address payable[] _issuers, address[] _approvers, string _data, uint _deadline, address _token, uint _tokenVersion);\n  event ContributionAdded(uint _bountyId, uint _contributionId, address payable _contributor, uint _amount);\n  event ContributionRefunded(uint _bountyId, uint _contributionId);\n  event ContributionsRefunded(uint _bountyId, address _issuer, uint[] _contributionIds);\n  event BountyDrained(uint _bountyId, address _issuer, uint[] _amounts);\n  event ActionPerformed(uint _bountyId, address _fulfiller, string _data);\n  event BountyFulfilled(uint _bountyId, uint _fulfillmentId, address payable[] _fulfillers, string _data, address _submitter);\n  event FulfillmentUpdated(uint _bountyId, uint _fulfillmentId, address payable[] _fulfillers, string _data);\n  event FulfillmentAccepted(uint _bountyId, uint  _fulfillmentId, address _approver, uint[] _tokenAmounts);\n  event BountyChanged(uint _bountyId, address _changer, address payable[] _issuers, address payable[] _approvers, string _data, uint _deadline);\n  event BountyIssuersUpdated(uint _bountyId, address _changer, address payable[] _issuers);\n  event BountyApproversUpdated(uint _bountyId, address _changer, address[] _approvers);\n  event BountyDataChanged(uint _bountyId, address _changer, string _data);\n  event BountyDeadlineChanged(uint _bountyId, address _changer, uint _deadline);\n}",
  "sourcePath": "/Users/santteegt/GitRepositories/clones/ocean-protocol/decentraminds-contracts/contracts/StandardBounties/StandardBounties.sol",
  "compiler": {
    "name": "solc",
    "version": "0.5.6+commit.b259423e.Emscripten.clang"
  },
  "schemaVersion": "3.0.19",
  "updatedAt": "2019-12-30T22:27:02.941Z",
  "networkType": "ethereum",
  "devdoc": {
    "author": "Mark Beylin <mark.beylin@consensys.net>, Gonalo S <goncalo.sa@consensys.net>, Kevin Owocki <kevin.owocki@consensys.net>, Ricardo Guilherme Schmidt (@3esmit), Matt Garnett <matt.garnett@consensys.net>, Craig Williams <craig.williams@consensys.net>",
    "details": "A contract for issuing bounties on Ethereum paying in ETH, ERC20, or ERC721 tokens",
    "methods": {
      "acceptFulfillment(address,uint256,uint256,uint256,uint256[])": {
        "details": "acceptFulfillment(): Allows any of the approvers to accept a given submission",
        "params": {
          "_approverId": "the index of the approver which is making the call",
          "_bountyId": "the index of the bounty",
          "_fulfillmentId": "the index of the fulfillment to be accepted",
          "_sender": "the sender of the transaction issuing the bounty (should be the same as msg.sender unless the txn is called by the meta tx relayer)",
          "_tokenAmounts": "the array of token amounts which will be paid to the                      fulfillers, whose length should equal the length of the                      _fulfillers array of the submission. If the bounty pays                      in ERC721 tokens, then these should be the token IDs                      being sent to each of the individual fulfillers"
        }
      },
      "addApprovers(address,uint256,uint256,address[])": {
        "details": "addApprovers(): Allows any of the issuers to add more approvers to the bounty",
        "params": {
          "_approvers": "the array of addresses to add to the list of valid approvers",
          "_bountyId": "the index of the bounty",
          "_issuerId": "the index of the issuer who is calling the function",
          "_sender": "the sender of the transaction issuing the bounty (should be the same as msg.sender unless the txn is called by the meta tx relayer)"
        }
      },
      "addIssuers(address,uint256,uint256,address[])": {
        "details": "addIssuers(): Allows any of the issuers to add more issuers to the bounty",
        "params": {
          "_bountyId": "the index of the bounty",
          "_issuerId": "the index of the issuer who is calling the function",
          "_issuers": "the array of addresses to add to the list of valid issuers",
          "_sender": "the sender of the transaction issuing the bounty (should be the same as msg.sender unless the txn is called by the meta tx relayer)"
        }
      },
      "changeApprover(address,uint256,uint256,uint256,address)": {
        "details": "changeApprover(): Allows any of the issuers to change a particular approver of the bounty",
        "params": {
          "_approver": "the address of the new approver",
          "_approverId": "the index of the approver who is being changed",
          "_bountyId": "the index of the bounty",
          "_issuerId": "the index of the issuer who is calling the function",
          "_sender": "the sender of the transaction issuing the bounty (should be the same as msg.sender unless the txn is called by the meta tx relayer)"
        }
      },
      "changeBounty(address,uint256,uint256,address[],address[],string,uint256)": {
        "details": "changeBounty(): Allows any of the issuers to change the bounty",
        "params": {
          "_approvers": "the new array of addresses who will be the approvers of the bounty",
          "_bountyId": "the index of the bounty",
          "_data": "the new IPFS hash representing the JSON object storing the details of the bounty (see docs for schema details)",
          "_deadline": "the new timestamp which will become the deadline of the bounty",
          "_issuerId": "the index of the issuer who is calling the function",
          "_issuers": "the new array of addresses who will be the issuers of the bounty",
          "_sender": "the sender of the transaction issuing the bounty (should be the same as msg.sender unless the txn is called by the meta tx relayer)"
        }
      },
      "changeData(address,uint256,uint256,string)": {
        "details": "changeData(): Allows any of the issuers to change the data the bounty",
        "params": {
          "_bountyId": "the index of the bounty",
          "_data": "the new IPFS hash representing the JSON object storing the details of the bounty (see docs for schema details)",
          "_issuerId": "the index of the issuer who is calling the function",
          "_sender": "the sender of the transaction issuing the bounty (should be the same as msg.sender unless the txn is called by the meta tx relayer)"
        }
      },
      "changeDeadline(address,uint256,uint256,uint256)": {
        "details": "changeDeadline(): Allows any of the issuers to change the deadline the bounty",
        "params": {
          "_bountyId": "the index of the bounty",
          "_deadline": "the new timestamp which will become the deadline of the bounty",
          "_issuerId": "the index of the issuer who is calling the function",
          "_sender": "the sender of the transaction issuing the bounty (should be the same as msg.sender unless the txn is called by the meta tx relayer)"
        }
      },
      "changeIssuer(address,uint256,uint256,uint256,address)": {
        "details": "changeIssuer(): Allows any of the issuers to change a particular issuer of the bounty",
        "params": {
          "_bountyId": "the index of the bounty",
          "_issuerId": "the index of the issuer who is calling the function",
          "_issuerIdToChange": "the index of the issuer who is being changed",
          "_newIssuer": "the address of the new issuer",
          "_sender": "the sender of the transaction issuing the bounty (should be the same as msg.sender unless the txn is called by the meta tx relayer)"
        }
      },
      "changeIssuerAndApprover(address,uint256,uint256,uint256,uint256,address)": {
        "details": "changeIssuerAndApprover(): Allows any of the issuers to change a particular approver of the bounty",
        "params": {
          "_approverIdToChange": "the index of the approver who is being changed",
          "_bountyId": "the index of the bounty",
          "_issuer": "the address of the new approver",
          "_issuerId": "the index of the issuer who is calling the function",
          "_issuerIdToChange": "the index of the issuer who is being changed",
          "_sender": "the sender of the transaction issuing the bounty (should be the same as msg.sender unless the txn is called by the meta tx relayer)"
        }
      },
      "contribute(address,uint256,uint256)": {
        "details": "contribute(): Allows users to contribute tokens to a given bounty.                    Contributing merits no privelages to administer the                    funds in the bounty or accept submissions. Contributions                    are refundable but only on the condition that the deadline                    has elapsed, and the bounty has not yet paid out any funds.                    All funds deposited in a bounty are at the mercy of a                    bounty's issuers and approvers, so please be careful!",
        "params": {
          "_amount": "the amount of tokens being contributed",
          "_bountyId": "the index of the bounty",
          "_sender": "the sender of the transaction issuing the bounty (should be the same as msg.sender unless the txn is called by the meta tx relayer)"
        }
      },
      "drainBounty(address,uint256,uint256,uint256[])": {
        "details": "drainBounty(): Allows an issuer to drain the funds from the bounty",
        "params": {
          "_amounts": "an array of amounts of tokens to be sent. The length of the array should be 1 if the bounty is in ETH or ERC20 tokens. If it's an ERC721 bounty, the array should be the list of tokenIDs.",
          "_bountyId": "the index of the bounty",
          "_issuerId": "the index of the issuer who is making the call",
          "_sender": "the sender of the transaction issuing the bounty (should be the same as msg.sender unless the txn is called by the meta tx relayer)"
        }
      },
      "fulfillAndAccept(address,uint256,address[],string,uint256,uint256[])": {
        "details": "fulfillAndAccept(): Allows any of the approvers to fulfill and accept a submission simultaneously",
        "params": {
          "_approverId": "the index of the approver which is making the call",
          "_bountyId": "the index of the bounty",
          "_data": "the IPFS hash corresponding to a JSON object which contains the details of the submission (see docs for schema details)",
          "_fulfillers": "the array of addresses which will receive payouts for the submission",
          "_sender": "the sender of the transaction issuing the bounty (should be the same as msg.sender unless the txn is called by the meta tx relayer)",
          "_tokenAmounts": "the array of token amounts which will be paid to the                      fulfillers, whose length should equal the length of the                      _fulfillers array of the submission. If the bounty pays                      in ERC721 tokens, then these should be the token IDs                      being sent to each of the individual fulfillers"
        }
      },
      "fulfillBounty(address,uint256,address[],string)": {
        "details": "fulfillBounty(): Allows users to fulfill the bounty to get paid out",
        "params": {
          "_bountyId": "the index of the bounty",
          "_data": "the IPFS hash corresponding to a JSON object which contains the details of the submission (see docs for schema details)",
          "_fulfillers": "the array of addresses which will receive payouts for the submission",
          "_sender": "the sender of the transaction issuing the bounty (should be the same as msg.sender unless the txn is called by the meta tx relayer)"
        }
      },
      "getBounty(uint256)": {
        "details": "getBounty(): Returns the details of the bounty",
        "params": {
          "_bountyId": "the index of the bounty"
        },
        "return": "Returns a tuple for the bounty"
      },
      "issueAndContribute(address,address[],address[],string,uint256,address,uint256,uint256)": {
        "params": {
          "_depositAmount": "the amount of tokens being deposited to the bounty, which will create a new contribution to the bounty"
        }
      },
      "issueBounty(address,address[],address[],string,uint256,address,uint256)": {
        "details": "issueBounty(): creates a new bounty",
        "params": {
          "_approvers": "the array of addresses who will be the approvers of the bounty",
          "_data": "the IPFS hash representing the JSON object storing the details of the bounty (see docs for schema details)",
          "_deadline": "the timestamp which will become the deadline of the bounty",
          "_issuers": "the array of addresses who will be the issuers of the bounty",
          "_sender": "the sender of the transaction issuing the bounty (should be the same as msg.sender unless the txn is called by the meta tx relayer)",
          "_token": "the address of the token which will be used for the bounty",
          "_tokenVersion": "the version of the token being used for the bounty (0 for ETH, 20 for ERC20, 721 for ERC721)"
        }
      },
      "performAction(address,uint256,string)": {
        "details": "performAction(): Allows users to perform any generalized action                       associated with a particular bounty, such as applying for it",
        "params": {
          "_bountyId": "the index of the bounty",
          "_data": "the IPFS hash corresponding to a JSON object which contains the details of the action being performed (see docs for schema details)",
          "_sender": "the sender of the transaction issuing the bounty (should be the same as msg.sender unless the txn is called by the meta tx relayer)"
        }
      },
      "refundContribution(address,uint256,uint256)": {
        "details": "refundContribution(): Allows users to refund the contributions they've                            made to a particular bounty, but only if the bounty                            has not yet paid out, and the deadline has elapsed.",
        "params": {
          "_bountyId": "the index of the bounty",
          "_contributionId": "the index of the contribution being refunded",
          "_sender": "the sender of the transaction issuing the bounty (should be the same as msg.sender unless the txn is called by the meta tx relayer)"
        }
      },
      "refundContributions(address,uint256,uint256,uint256[])": {
        "details": "refundContributions(): Allows users to refund their contributions in bulk",
        "params": {
          "_bountyId": "the index of the bounty",
          "_contributionIds": "the array of indexes of the contributions being refunded",
          "_issuerId": "the index of the issuer who is making the call",
          "_sender": "the sender of the transaction issuing the bounty (should be the same as msg.sender unless the txn is called by the meta tx relayer)"
        }
      },
      "refundMyContributions(address,uint256,uint256[])": {
        "details": "refundMyContributions(): Allows users to refund their contributions in bulk",
        "params": {
          "_bountyId": "the index of the bounty",
          "_contributionIds": "the array of indexes of the contributions being refunded",
          "_sender": "the sender of the transaction issuing the bounty (should be the same as msg.sender unless the txn is called by the meta tx relayer)"
        }
      },
      "setMetaTxRelayer(address)": {
        "details": "setMetaTxRelayer(): Sets the address of the meta transaction relayer",
        "params": {
          "_relayer": "the address of the relayer"
        }
      },
      "updateFulfillment(address,uint256,uint256,address[],string)": {
        "details": "updateFulfillment(): Allows the submitter of a fulfillment to update their submission",
        "params": {
          "_bountyId": "the index of the bounty",
          "_data": "the new IPFS hash corresponding to a JSON object which contains the details of the submission (see docs for schema details)",
          "_fulfillers": "the new array of addresses which will receive payouts for the submission",
          "_fulfillmentId": "the index of the fulfillment",
          "_sender": "the sender of the transaction issuing the bounty (should be the same as msg.sender unless the txn is called by the meta tx relayer)"
        }
      }
    },
    "title": "StandardBounties"
  },
  "userdoc": {
    "methods": {
      "drainBounty(address,uint256,uint256,uint256[])": {
        "notice": "when using this function, if an issuer doesn't drain the entire balance, some users may be able to refund their contributions, while others may not (which is unfair to them). Please use it wisely, only when necessary"
      }
    }
  }
}